{
	"format": "sphinx-sol-ct-artifact-1",
	"merkleRoot": "0x47487db67e2e75f544ec70486de61abd34157713293975cec6c16041a4bd62ae",
	"address": "0x6fbf8dc66b1879ff0ae243500f8b1e6f6d9e138a",
	"sourceName": "src/periphery/JBMatchingPriceFeed.sol",
	"contractName": "JBMatchingPriceFeed",
	"chainId": "0xa",
	"abi": [
		{
			"inputs": [],
			"stateMutability": "nonpayable",
			"type": "constructor"
		},
		{
			"inputs": [
				{
					"internalType": "uint256",
					"name": "decimals",
					"type": "uint256"
				}
			],
			"name": "currentUnitPrice",
			"outputs": [
				{
					"internalType": "uint256",
					"name": "",
					"type": "uint256"
				}
			],
			"stateMutability": "view",
			"type": "function"
		}
	],
	"args": [],
	"solcInputHash": "51e2de1557bafeed0f574c9089293121",
	"bytecode": "0x608060405234801561001057600080fd5b506101c4806100206000396000f3fe608060405234801561001057600080fd5b506004361061002b5760003560e01c8063d3f5c15f14610030575b600080fd5b61004361003e366004610068565b610055565b60405190815260200160405180910390f35b600061006282600a61017b565b92915050565b60006020828403121561007a57600080fd5b5035919050565b634e487b7160e01b600052601160045260246000fd5b600181815b808511156100d25781600019048211156100b8576100b8610081565b808516156100c557918102915b93841c939080029061009c565b509250929050565b6000826100e957506001610062565b816100f657506000610062565b816001811461010c576002811461011657610132565b6001915050610062565b60ff84111561012757610127610081565b50506001821b610062565b5060208310610133831016604e8410600b8410161715610155575081810a610062565b61015f8383610097565b806000190482111561017357610173610081565b029392505050565b600061018783836100da565b939250505056fea26469706673582212202fc11c29eaed0f860d0f0859c72e974a5362101a35d169ce1fb7c416f5cd44dc64736f6c63430008170033",
	"gitCommit": "c2c88c170759f2e64fcae5ce98f887bcc4d85883",
	"history": []
}