{
	"format": "sphinx-sol-ct-artifact-1",
	"merkleRoot": "0x60b901bea417fa02d2dfb5b74a6bc7a533df6b0b3a8a469dfbdff63383aebf54",
	"address": "0x04fd6913d6c32d8c216e153a43c04b1857a7793d",
	"sourceName": "src/JBPermissions.sol",
	"contractName": "JBPermissions",
	"chainId": "0xa4b1",
	"abi": [
		{
			"inputs": [
				{
					"internalType": "address",
					"name": "trustedForwarder",
					"type": "address"
				}
			],
			"stateMutability": "nonpayable",
			"type": "constructor"
		},
		{
			"inputs": [],
			"name": "WILDCARD_PROJECT_ID",
			"outputs": [
				{
					"internalType": "uint256",
					"name": "",
					"type": "uint256"
				}
			],
			"stateMutability": "view",
			"type": "function"
		},
		{
			"inputs": [
				{
					"internalType": "address",
					"name": "operator",
					"type": "address"
				},
				{
					"internalType": "address",
					"name": "account",
					"type": "address"
				},
				{
					"internalType": "uint256",
					"name": "projectId",
					"type": "uint256"
				},
				{
					"internalType": "uint256",
					"name": "permissionId",
					"type": "uint256"
				},
				{
					"internalType": "bool",
					"name": "includeRoot",
					"type": "bool"
				},
				{
					"internalType": "bool",
					"name": "includeWildcardProjectId",
					"type": "bool"
				}
			],
			"name": "hasPermission",
			"outputs": [
				{
					"internalType": "bool",
					"name": "",
					"type": "bool"
				}
			],
			"stateMutability": "view",
			"type": "function"
		},
		{
			"inputs": [
				{
					"internalType": "address",
					"name": "operator",
					"type": "address"
				},
				{
					"internalType": "address",
					"name": "account",
					"type": "address"
				},
				{
					"internalType": "uint256",
					"name": "projectId",
					"type": "uint256"
				},
				{
					"internalType": "uint256[]",
					"name": "permissionIds",
					"type": "uint256[]"
				},
				{
					"internalType": "bool",
					"name": "includeRoot",
					"type": "bool"
				},
				{
					"internalType": "bool",
					"name": "includeWildcardProjectId",
					"type": "bool"
				}
			],
			"name": "hasPermissions",
			"outputs": [
				{
					"internalType": "bool",
					"name": "",
					"type": "bool"
				}
			],
			"stateMutability": "view",
			"type": "function"
		},
		{
			"inputs": [
				{
					"internalType": "address",
					"name": "forwarder",
					"type": "address"
				}
			],
			"name": "isTrustedForwarder",
			"outputs": [
				{
					"internalType": "bool",
					"name": "",
					"type": "bool"
				}
			],
			"stateMutability": "view",
			"type": "function"
		},
		{
			"inputs": [
				{
					"internalType": "address",
					"name": "operator",
					"type": "address"
				},
				{
					"internalType": "address",
					"name": "account",
					"type": "address"
				},
				{
					"internalType": "uint256",
					"name": "projectId",
					"type": "uint256"
				}
			],
			"name": "permissionsOf",
			"outputs": [
				{
					"internalType": "uint256",
					"name": "",
					"type": "uint256"
				}
			],
			"stateMutability": "view",
			"type": "function"
		},
		{
			"inputs": [
				{
					"internalType": "address",
					"name": "account",
					"type": "address"
				},
				{
					"components": [
						{
							"internalType": "address",
							"name": "operator",
							"type": "address"
						},
						{
							"internalType": "uint64",
							"name": "projectId",
							"type": "uint64"
						},
						{
							"internalType": "uint8[]",
							"name": "permissionIds",
							"type": "uint8[]"
						}
					],
					"internalType": "struct JBPermissionsData",
					"name": "permissionsData",
					"type": "tuple"
				}
			],
			"name": "setPermissionsFor",
			"outputs": [],
			"stateMutability": "nonpayable",
			"type": "function"
		},
		{
			"inputs": [],
			"name": "trustedForwarder",
			"outputs": [
				{
					"internalType": "address",
					"name": "",
					"type": "address"
				}
			],
			"stateMutability": "view",
			"type": "function"
		},
		{
			"anonymous": false,
			"inputs": [
				{
					"indexed": true,
					"internalType": "address",
					"name": "operator",
					"type": "address"
				},
				{
					"indexed": true,
					"internalType": "address",
					"name": "account",
					"type": "address"
				},
				{
					"indexed": true,
					"internalType": "uint256",
					"name": "projectId",
					"type": "uint256"
				},
				{
					"indexed": false,
					"internalType": "uint8[]",
					"name": "permissionIds",
					"type": "uint8[]"
				},
				{
					"indexed": false,
					"internalType": "uint256",
					"name": "packed",
					"type": "uint256"
				},
				{
					"indexed": false,
					"internalType": "address",
					"name": "caller",
					"type": "address"
				}
			],
			"name": "OperatorPermissionsSet",
			"type": "event"
		},
		{
			"inputs": [],
			"name": "JBPermissions_CantSetRootPermissionForWildcardProject",
			"type": "error"
		},
		{
			"inputs": [],
			"name": "JBPermissions_NoZeroPermission",
			"type": "error"
		},
		{
			"inputs": [
				{
					"internalType": "uint256",
					"name": "permissionId",
					"type": "uint256"
				}
			],
			"name": "JBPermissions_PermissionIdOutOfBounds",
			"type": "error"
		},
		{
			"inputs": [],
			"name": "JBPermissions_Unauthorized",
			"type": "error"
		}
	],
	"args": [],
	"solcInputHash": "51e2de1557bafeed0f574c9089293121",
	"bytecode": "0x60a060405234801561001057600080fd5b50604051610bad380380610bad83398101604081905261002f91610040565b6001600160a01b0316608052610070565b60006020828403121561005257600080fd5b81516001600160a01b038116811461006957600080fd5b9392505050565b608051610b156100986000396000818160cf0152818161011f01526106cf0152610b156000f3fe608060405234801561001057600080fd5b506004361061007d5760003560e01c8063632af95f1161005b578063632af95f146100ff5780637da0a8771461011257806380deb230146101495780638affd7eb1461018757600080fd5b8063348b684e14610082578063449f24a4146100aa578063572b6c05146100bf575b600080fd5b610095610090366004610769565b61018f565b60405190151581526020015b60405180910390f35b6100bd6100b83660046107cf565b6102d3565b005b6100956100cd366004610824565b7f00000000000000000000000000000000000000000000000000000000000000006001600160a01b0390811691161490565b61009561010d366004610846565b6104cb565b6040516001600160a01b037f00000000000000000000000000000000000000000000000000000000000000001681526020016100a1565b610179610157366004610908565b6000602081815293815260408082208552928152828120909352825290205481565b6040519081526020016100a1565b610179600081565b600060ff8411156101bb576040516311f31b1160e21b8152600481018590526024015b60405180910390fd5b82801561023f57506001600160a01b03808816600090815260208181526040808320938a168352928152828220888352905220546101fa906001610661565b8061023f575081801561023f57506001600160a01b03808816600090815260208181526040808320938a1683529281528282208280529052205461023f906001610661565b1561024c575060016102c9565b6001600160a01b03808816600090815260208181526040808320938a168352928152828220888352905220546102829085610661565b806102c657508180156102c657506001600160a01b03808816600090815260208181526040808320938a168352928152828220828052905220546102c69085610661565b90505b9695505050505050565b60006102ea6102e56040840184610944565b610670565b90506102f7816000610661565b1561031557604051631d74279f60e31b815260040160405180910390fd5b600061031f6106c8565b9050836001600160a01b0316816001600160a01b03161415801561039d5750610349826001610661565b8061036d575060006103616040850160208601610995565b67ffffffffffffffff16145b8061039d575061039b81856103886040870160208801610995565b67ffffffffffffffff166001808061018f565b155b156103bb57604051635b5fa6b760e11b815260040160405180910390fd5b816000806103cc6020870187610824565b6001600160a01b03166001600160a01b031681526020019081526020016000206000866001600160a01b03166001600160a01b0316815260200190815260200160002060008560200160208101906104249190610995565b67ffffffffffffffff168152602001908152602001600020819055508260200160208101906104539190610995565b67ffffffffffffffff166001600160a01b0385166104746020860186610824565b6001600160a01b03167f5324a861114a736770617a7dad3321b8417dc39698b30adfade6d0367b2e5d596104ab6040880188610944565b87876040516104bd94939291906109d0565b60405180910390a450505050565b600082801561055157506001600160a01b03808916600090815260208181526040808320938b1683529281528282208983529052205461050c906001610661565b80610551575081801561055157506001600160a01b03808916600090815260208181526040808320938b16835292815282822082805290522054610551906001610661565b1561055e57506001610656565b6001600160a01b03808916600090815260208181526040808320938b16835292815282822089835290529081205490836105995760006105c6565b6001600160a01b03808b16600090815260208181526040808320938d168352928152828220828052905220545b905060005b8681101561064e5760008888838181106105e7576105e7610a2e565b90506020020135905060ff811115610615576040516311f31b1160e21b8152600481018290526024016101b2565b61061f8482610661565b15801561063357506106318382610661565b155b15610645576000945050505050610656565b506001016105cb565b506001925050505b979650505050505050565b600182821c8116145b92915050565b6000805b828110156106c157600084848381811061069057610690610a2e565b90506020020160208101906106a59190610a44565b60ff169050806001901b83179250508080600101915050610674565b5092915050565b60003660147f00000000000000000000000000000000000000000000000000000000000000006001600160a01b0316331480156107055750808210155b15610735576000366107178385610a5f565b610722928290610a80565b61072b91610aaa565b60601c9250505090565b339250505090565b80356001600160a01b038116811461075457600080fd5b919050565b8035801515811461075457600080fd5b60008060008060008060c0878903121561078257600080fd5b61078b8761073d565b95506107996020880161073d565b945060408701359350606087013592506107b560808801610759565b91506107c360a08801610759565b90509295509295509295565b600080604083850312156107e257600080fd5b6107eb8361073d565b9150602083013567ffffffffffffffff81111561080757600080fd5b83016060818603121561081957600080fd5b809150509250929050565b60006020828403121561083657600080fd5b61083f8261073d565b9392505050565b600080600080600080600060c0888a03121561086157600080fd5b61086a8861073d565b96506108786020890161073d565b955060408801359450606088013567ffffffffffffffff8082111561089c57600080fd5b818a0191508a601f8301126108b057600080fd5b8135818111156108bf57600080fd5b8b60208260051b85010111156108d457600080fd5b6020830196508095505050506108ec60808901610759565b91506108fa60a08901610759565b905092959891949750929550565b60008060006060848603121561091d57600080fd5b6109268461073d565b92506109346020850161073d565b9150604084013590509250925092565b6000808335601e1984360301811261095b57600080fd5b83018035915067ffffffffffffffff82111561097657600080fd5b6020019150600581901b360382131561098e57600080fd5b9250929050565b6000602082840312156109a757600080fd5b813567ffffffffffffffff8116811461083f57600080fd5b803560ff8116811461075457600080fd5b6060808252810184905260008560808301825b87811015610a0b5760ff6109f6846109bf565b168252602092830192909101906001016109e3565b50602084019590955250506001600160a01b039190911660409091015292915050565b634e487b7160e01b600052603260045260246000fd5b600060208284031215610a5657600080fd5b61083f826109bf565b8181038181111561066a57634e487b7160e01b600052601160045260246000fd5b60008085851115610a9057600080fd5b83861115610a9d57600080fd5b5050820193919092039150565b6bffffffffffffffffffffffff198135818116916014851015610ad75780818660140360031b1b83161692505b50509291505056fea264697066735822122049fb281a81e1d83d8fa06c9ddb047ee16f7e2976081b8bb27d8d53126b4fae5e64736f6c63430008170033",
	"deployedBytecode": "0x608060405234801561001057600080fd5b506004361061007d5760003560e01c8063632af95f1161005b578063632af95f146100ff5780637da0a8771461011257806380deb230146101495780638affd7eb1461018757600080fd5b8063348b684e14610082578063449f24a4146100aa578063572b6c05146100bf575b600080fd5b610095610090366004610769565b61018f565b60405190151581526020015b60405180910390f35b6100bd6100b83660046107cf565b6102d3565b005b6100956100cd366004610824565b7f000000000000000000000000c29d6995ab3b0df4650ad643adeac55e7acbb5666001600160a01b0390811691161490565b61009561010d366004610846565b6104cb565b6040516001600160a01b037f000000000000000000000000c29d6995ab3b0df4650ad643adeac55e7acbb5661681526020016100a1565b610179610157366004610908565b6000602081815293815260408082208552928152828120909352825290205481565b6040519081526020016100a1565b610179600081565b600060ff8411156101bb576040516311f31b1160e21b8152600481018590526024015b60405180910390fd5b82801561023f57506001600160a01b03808816600090815260208181526040808320938a168352928152828220888352905220546101fa906001610661565b8061023f575081801561023f57506001600160a01b03808816600090815260208181526040808320938a1683529281528282208280529052205461023f906001610661565b1561024c575060016102c9565b6001600160a01b03808816600090815260208181526040808320938a168352928152828220888352905220546102829085610661565b806102c657508180156102c657506001600160a01b03808816600090815260208181526040808320938a168352928152828220828052905220546102c69085610661565b90505b9695505050505050565b60006102ea6102e56040840184610944565b610670565b90506102f7816000610661565b1561031557604051631d74279f60e31b815260040160405180910390fd5b600061031f6106c8565b9050836001600160a01b0316816001600160a01b03161415801561039d5750610349826001610661565b8061036d575060006103616040850160208601610995565b67ffffffffffffffff16145b8061039d575061039b81856103886040870160208801610995565b67ffffffffffffffff166001808061018f565b155b156103bb57604051635b5fa6b760e11b815260040160405180910390fd5b816000806103cc6020870187610824565b6001600160a01b03166001600160a01b031681526020019081526020016000206000866001600160a01b03166001600160a01b0316815260200190815260200160002060008560200160208101906104249190610995565b67ffffffffffffffff168152602001908152602001600020819055508260200160208101906104539190610995565b67ffffffffffffffff166001600160a01b0385166104746020860186610824565b6001600160a01b03167f5324a861114a736770617a7dad3321b8417dc39698b30adfade6d0367b2e5d596104ab6040880188610944565b87876040516104bd94939291906109d0565b60405180910390a450505050565b600082801561055157506001600160a01b03808916600090815260208181526040808320938b1683529281528282208983529052205461050c906001610661565b80610551575081801561055157506001600160a01b03808916600090815260208181526040808320938b16835292815282822082805290522054610551906001610661565b1561055e57506001610656565b6001600160a01b03808916600090815260208181526040808320938b16835292815282822089835290529081205490836105995760006105c6565b6001600160a01b03808b16600090815260208181526040808320938d168352928152828220828052905220545b905060005b8681101561064e5760008888838181106105e7576105e7610a2e565b90506020020135905060ff811115610615576040516311f31b1160e21b8152600481018290526024016101b2565b61061f8482610661565b15801561063357506106318382610661565b155b15610645576000945050505050610656565b506001016105cb565b506001925050505b979650505050505050565b600182821c8116145b92915050565b6000805b828110156106c157600084848381811061069057610690610a2e565b90506020020160208101906106a59190610a44565b60ff169050806001901b83179250508080600101915050610674565b5092915050565b60003660147f000000000000000000000000c29d6995ab3b0df4650ad643adeac55e7acbb5666001600160a01b0316331480156107055750808210155b15610735576000366107178385610a5f565b610722928290610a80565b61072b91610aaa565b60601c9250505090565b339250505090565b80356001600160a01b038116811461075457600080fd5b919050565b8035801515811461075457600080fd5b60008060008060008060c0878903121561078257600080fd5b61078b8761073d565b95506107996020880161073d565b945060408701359350606087013592506107b560808801610759565b91506107c360a08801610759565b90509295509295509295565b600080604083850312156107e257600080fd5b6107eb8361073d565b9150602083013567ffffffffffffffff81111561080757600080fd5b83016060818603121561081957600080fd5b809150509250929050565b60006020828403121561083657600080fd5b61083f8261073d565b9392505050565b600080600080600080600060c0888a03121561086157600080fd5b61086a8861073d565b96506108786020890161073d565b955060408801359450606088013567ffffffffffffffff8082111561089c57600080fd5b818a0191508a601f8301126108b057600080fd5b8135818111156108bf57600080fd5b8b60208260051b85010111156108d457600080fd5b6020830196508095505050506108ec60808901610759565b91506108fa60a08901610759565b905092959891949750929550565b60008060006060848603121561091d57600080fd5b6109268461073d565b92506109346020850161073d565b9150604084013590509250925092565b6000808335601e1984360301811261095b57600080fd5b83018035915067ffffffffffffffff82111561097657600080fd5b6020019150600581901b360382131561098e57600080fd5b9250929050565b6000602082840312156109a757600080fd5b813567ffffffffffffffff8116811461083f57600080fd5b803560ff8116811461075457600080fd5b6060808252810184905260008560808301825b87811015610a0b5760ff6109f6846109bf565b168252602092830192909101906001016109e3565b50602084019590955250506001600160a01b039190911660409091015292915050565b634e487b7160e01b600052603260045260246000fd5b600060208284031215610a5657600080fd5b61083f826109bf565b8181038181111561066a57634e487b7160e01b600052601160045260246000fd5b60008085851115610a9057600080fd5b83861115610a9d57600080fd5b5050820193919092039150565b6bffffffffffffffffffffffff198135818116916014851015610ad75780818660140360031b1b83161692505b50509291505056fea264697066735822122049fb281a81e1d83d8fa06c9ddb047ee16f7e2976081b8bb27d8d53126b4fae5e64736f6c63430008170033",
	"gitCommit": "2c257a6d7529e08bc4aac39de4cacacc08d4628e",
	"history": []
}