{
	"format": "sphinx-sol-ct-artifact-1",
	"merkleRoot": "0x60b901bea417fa02d2dfb5b74a6bc7a533df6b0b3a8a469dfbdff63383aebf54",
	"address": "0x885f707efa18d2cb12f05a3a8eba6b4b26c8c1d4",
	"sourceName": "src/JBProjects.sol",
	"contractName": "JBProjects",
	"chainId": "0xa4b1",
	"abi": [
		{
			"inputs": [
				{
					"internalType": "address",
					"name": "owner",
					"type": "address"
				},
				{
					"internalType": "address",
					"name": "feeProjectOwner",
					"type": "address"
				},
				{
					"internalType": "address",
					"name": "trustedForwarder",
					"type": "address"
				}
			],
			"stateMutability": "nonpayable",
			"type": "constructor"
		},
		{
			"inputs": [
				{
					"internalType": "address",
					"name": "to",
					"type": "address"
				},
				{
					"internalType": "uint256",
					"name": "tokenId",
					"type": "uint256"
				}
			],
			"name": "approve",
			"outputs": [],
			"stateMutability": "nonpayable",
			"type": "function"
		},
		{
			"inputs": [
				{
					"internalType": "address",
					"name": "owner",
					"type": "address"
				}
			],
			"name": "balanceOf",
			"outputs": [
				{
					"internalType": "uint256",
					"name": "",
					"type": "uint256"
				}
			],
			"stateMutability": "view",
			"type": "function"
		},
		{
			"inputs": [],
			"name": "count",
			"outputs": [
				{
					"internalType": "uint256",
					"name": "",
					"type": "uint256"
				}
			],
			"stateMutability": "view",
			"type": "function"
		},
		{
			"inputs": [
				{
					"internalType": "address",
					"name": "owner",
					"type": "address"
				}
			],
			"name": "createFor",
			"outputs": [
				{
					"internalType": "uint256",
					"name": "projectId",
					"type": "uint256"
				}
			],
			"stateMutability": "nonpayable",
			"type": "function"
		},
		{
			"inputs": [
				{
					"internalType": "uint256",
					"name": "tokenId",
					"type": "uint256"
				}
			],
			"name": "getApproved",
			"outputs": [
				{
					"internalType": "address",
					"name": "",
					"type": "address"
				}
			],
			"stateMutability": "view",
			"type": "function"
		},
		{
			"inputs": [
				{
					"internalType": "address",
					"name": "owner",
					"type": "address"
				},
				{
					"internalType": "address",
					"name": "operator",
					"type": "address"
				}
			],
			"name": "isApprovedForAll",
			"outputs": [
				{
					"internalType": "bool",
					"name": "",
					"type": "bool"
				}
			],
			"stateMutability": "view",
			"type": "function"
		},
		{
			"inputs": [
				{
					"internalType": "address",
					"name": "forwarder",
					"type": "address"
				}
			],
			"name": "isTrustedForwarder",
			"outputs": [
				{
					"internalType": "bool",
					"name": "",
					"type": "bool"
				}
			],
			"stateMutability": "view",
			"type": "function"
		},
		{
			"inputs": [],
			"name": "name",
			"outputs": [
				{
					"internalType": "string",
					"name": "",
					"type": "string"
				}
			],
			"stateMutability": "view",
			"type": "function"
		},
		{
			"inputs": [],
			"name": "owner",
			"outputs": [
				{
					"internalType": "address",
					"name": "",
					"type": "address"
				}
			],
			"stateMutability": "view",
			"type": "function"
		},
		{
			"inputs": [
				{
					"internalType": "uint256",
					"name": "tokenId",
					"type": "uint256"
				}
			],
			"name": "ownerOf",
			"outputs": [
				{
					"internalType": "address",
					"name": "",
					"type": "address"
				}
			],
			"stateMutability": "view",
			"type": "function"
		},
		{
			"inputs": [],
			"name": "renounceOwnership",
			"outputs": [],
			"stateMutability": "nonpayable",
			"type": "function"
		},
		{
			"inputs": [
				{
					"internalType": "address",
					"name": "from",
					"type": "address"
				},
				{
					"internalType": "address",
					"name": "to",
					"type": "address"
				},
				{
					"internalType": "uint256",
					"name": "tokenId",
					"type": "uint256"
				}
			],
			"name": "safeTransferFrom",
			"outputs": [],
			"stateMutability": "nonpayable",
			"type": "function"
		},
		{
			"inputs": [
				{
					"internalType": "address",
					"name": "from",
					"type": "address"
				},
				{
					"internalType": "address",
					"name": "to",
					"type": "address"
				},
				{
					"internalType": "uint256",
					"name": "tokenId",
					"type": "uint256"
				},
				{
					"internalType": "bytes",
					"name": "data",
					"type": "bytes"
				}
			],
			"name": "safeTransferFrom",
			"outputs": [],
			"stateMutability": "nonpayable",
			"type": "function"
		},
		{
			"inputs": [
				{
					"internalType": "address",
					"name": "operator",
					"type": "address"
				},
				{
					"internalType": "bool",
					"name": "approved",
					"type": "bool"
				}
			],
			"name": "setApprovalForAll",
			"outputs": [],
			"stateMutability": "nonpayable",
			"type": "function"
		},
		{
			"inputs": [
				{
					"internalType": "contract IJBTokenUriResolver",
					"name": "resolver",
					"type": "address"
				}
			],
			"name": "setTokenUriResolver",
			"outputs": [],
			"stateMutability": "nonpayable",
			"type": "function"
		},
		{
			"inputs": [
				{
					"internalType": "bytes4",
					"name": "interfaceId",
					"type": "bytes4"
				}
			],
			"name": "supportsInterface",
			"outputs": [
				{
					"internalType": "bool",
					"name": "",
					"type": "bool"
				}
			],
			"stateMutability": "view",
			"type": "function"
		},
		{
			"inputs": [],
			"name": "symbol",
			"outputs": [
				{
					"internalType": "string",
					"name": "",
					"type": "string"
				}
			],
			"stateMutability": "view",
			"type": "function"
		},
		{
			"inputs": [
				{
					"internalType": "uint256",
					"name": "projectId",
					"type": "uint256"
				}
			],
			"name": "tokenURI",
			"outputs": [
				{
					"internalType": "string",
					"name": "",
					"type": "string"
				}
			],
			"stateMutability": "view",
			"type": "function"
		},
		{
			"inputs": [],
			"name": "tokenUriResolver",
			"outputs": [
				{
					"internalType": "contract IJBTokenUriResolver",
					"name": "",
					"type": "address"
				}
			],
			"stateMutability": "view",
			"type": "function"
		},
		{
			"inputs": [
				{
					"internalType": "address",
					"name": "from",
					"type": "address"
				},
				{
					"internalType": "address",
					"name": "to",
					"type": "address"
				},
				{
					"internalType": "uint256",
					"name": "tokenId",
					"type": "uint256"
				}
			],
			"name": "transferFrom",
			"outputs": [],
			"stateMutability": "nonpayable",
			"type": "function"
		},
		{
			"inputs": [
				{
					"internalType": "address",
					"name": "newOwner",
					"type": "address"
				}
			],
			"name": "transferOwnership",
			"outputs": [],
			"stateMutability": "nonpayable",
			"type": "function"
		},
		{
			"inputs": [],
			"name": "trustedForwarder",
			"outputs": [
				{
					"internalType": "address",
					"name": "",
					"type": "address"
				}
			],
			"stateMutability": "view",
			"type": "function"
		},
		{
			"anonymous": false,
			"inputs": [
				{
					"indexed": true,
					"internalType": "address",
					"name": "owner",
					"type": "address"
				},
				{
					"indexed": true,
					"internalType": "address",
					"name": "approved",
					"type": "address"
				},
				{
					"indexed": true,
					"internalType": "uint256",
					"name": "tokenId",
					"type": "uint256"
				}
			],
			"name": "Approval",
			"type": "event"
		},
		{
			"anonymous": false,
			"inputs": [
				{
					"indexed": true,
					"internalType": "address",
					"name": "owner",
					"type": "address"
				},
				{
					"indexed": true,
					"internalType": "address",
					"name": "operator",
					"type": "address"
				},
				{
					"indexed": false,
					"internalType": "bool",
					"name": "approved",
					"type": "bool"
				}
			],
			"name": "ApprovalForAll",
			"type": "event"
		},
		{
			"anonymous": false,
			"inputs": [
				{
					"indexed": true,
					"internalType": "uint256",
					"name": "projectId",
					"type": "uint256"
				},
				{
					"indexed": true,
					"internalType": "address",
					"name": "owner",
					"type": "address"
				},
				{
					"indexed": false,
					"internalType": "address",
					"name": "caller",
					"type": "address"
				}
			],
			"name": "Create",
			"type": "event"
		},
		{
			"anonymous": false,
			"inputs": [
				{
					"indexed": true,
					"internalType": "address",
					"name": "previousOwner",
					"type": "address"
				},
				{
					"indexed": true,
					"internalType": "address",
					"name": "newOwner",
					"type": "address"
				}
			],
			"name": "OwnershipTransferred",
			"type": "event"
		},
		{
			"anonymous": false,
			"inputs": [
				{
					"indexed": true,
					"internalType": "contract IJBTokenUriResolver",
					"name": "resolver",
					"type": "address"
				},
				{
					"indexed": false,
					"internalType": "address",
					"name": "caller",
					"type": "address"
				}
			],
			"name": "SetTokenUriResolver",
			"type": "event"
		},
		{
			"anonymous": false,
			"inputs": [
				{
					"indexed": true,
					"internalType": "address",
					"name": "from",
					"type": "address"
				},
				{
					"indexed": true,
					"internalType": "address",
					"name": "to",
					"type": "address"
				},
				{
					"indexed": true,
					"internalType": "uint256",
					"name": "tokenId",
					"type": "uint256"
				}
			],
			"name": "Transfer",
			"type": "event"
		},
		{
			"inputs": [
				{
					"internalType": "address",
					"name": "sender",
					"type": "address"
				},
				{
					"internalType": "uint256",
					"name": "tokenId",
					"type": "uint256"
				},
				{
					"internalType": "address",
					"name": "owner",
					"type": "address"
				}
			],
			"name": "ERC721IncorrectOwner",
			"type": "error"
		},
		{
			"inputs": [
				{
					"internalType": "address",
					"name": "operator",
					"type": "address"
				},
				{
					"internalType": "uint256",
					"name": "tokenId",
					"type": "uint256"
				}
			],
			"name": "ERC721InsufficientApproval",
			"type": "error"
		},
		{
			"inputs": [
				{
					"internalType": "address",
					"name": "approver",
					"type": "address"
				}
			],
			"name": "ERC721InvalidApprover",
			"type": "error"
		},
		{
			"inputs": [
				{
					"internalType": "address",
					"name": "operator",
					"type": "address"
				}
			],
			"name": "ERC721InvalidOperator",
			"type": "error"
		},
		{
			"inputs": [
				{
					"internalType": "address",
					"name": "owner",
					"type": "address"
				}
			],
			"name": "ERC721InvalidOwner",
			"type": "error"
		},
		{
			"inputs": [
				{
					"internalType": "address",
					"name": "receiver",
					"type": "address"
				}
			],
			"name": "ERC721InvalidReceiver",
			"type": "error"
		},
		{
			"inputs": [
				{
					"internalType": "address",
					"name": "sender",
					"type": "address"
				}
			],
			"name": "ERC721InvalidSender",
			"type": "error"
		},
		{
			"inputs": [
				{
					"internalType": "uint256",
					"name": "tokenId",
					"type": "uint256"
				}
			],
			"name": "ERC721NonexistentToken",
			"type": "error"
		},
		{
			"inputs": [
				{
					"internalType": "address",
					"name": "owner",
					"type": "address"
				}
			],
			"name": "OwnableInvalidOwner",
			"type": "error"
		},
		{
			"inputs": [
				{
					"internalType": "address",
					"name": "account",
					"type": "address"
				}
			],
			"name": "OwnableUnauthorizedAccount",
			"type": "error"
		}
	],
	"args": [],
	"solcInputHash": "51e2de1557bafeed0f574c9089293121",
	"bytecode": "0x60a06040523480156200001157600080fd5b5060405162001e4538038062001e458339810160408190526200003491620007d9565b8281604051806040016040528060118152602001704a75696365626f782050726f6a6563747360781b81525060405180604001604052806008815260200167094aa92868a849eb60c31b8152508160009081620000929190620008c1565b506001620000a18282620008c1565b5050506001600160a01b039081166080528116620000da57604051631e4fbdf760e01b8152600060048201526024015b60405180910390fd5b620000e5816200010c565b506001600160a01b03821615620001035762000101826200015e565b505b50505062000ad9565b600680546001600160a01b038381166001600160a01b0319831681179093556040519116919082907f8be0079c531659141344cd1fd0a4f28419497f9722a3daafe3b4186f6b6457e090600090a35050565b60006007600081546200017190620009a3565b918290555090506001600160a01b038216817f365b3162cd780731fc55a794b59494d472bc2af701007f581843a70673814698620001ae620001da565b6040516001600160a01b03909116815260200160405180910390a3620001d58282620001eb565b919050565b6000620001e662000211565b905090565b6200020d8282604051806020016040528060008152506200026d60201b60201c565b5050565b6000366014620002213362000297565b80156200022e5750808210155b156200026557600036620002438385620009bf565b62000250928290620009d5565b6200025b9162000a01565b60601c9250505090565b339250505090565b620002798383620002be565b6200029262000287620001da565b600085858562000328565b505050565b6000620002a360805190565b6001600160a01b0316826001600160a01b0316149050919050565b6001600160a01b038216620002ea57604051633250574960e11b815260006004820152602401620000d1565b6000620002f983838362000460565b90506001600160a01b0381161562000292576040516339e3563760e11b815260006004820152602401620000d1565b6001600160a01b0383163b156200045957604051630a85bd0160e11b81526001600160a01b0384169063150b7a02906200036d90889088908790879060040162000a32565b6020604051808303816000875af1925050508015620003ab575060408051601f3d908101601f19168201909252620003a89181019062000aa6565b60015b62000419573d808015620003dc576040519150601f19603f3d011682016040523d82523d6000602084013e620003e1565b606091505b5080516000036200041157604051633250574960e11b81526001600160a01b0385166004820152602401620000d1565b805181602001fd5b6001600160e01b03198116630a85bd0160e11b146200045757604051633250574960e11b81526001600160a01b0385166004820152602401620000d1565b505b5050505050565b6000828152600260205260408120546001600160a01b03908116908316156200049057620004908184866200055f565b6001600160a01b03811615620004d057620004af6000858180620005c9565b6001600160a01b038116600090815260036020526040902080546000190190555b6001600160a01b0385161562000500576001600160a01b0385166000908152600360205260409020805460010190555b60008481526002602052604080822080546001600160a01b0319166001600160a01b0389811691821790925591518793918516917fddf252ad1be2c89b69c2b068fc378daa952ba7f163c4a11628f55a4df523b3ef91a4949350505050565b6200056c838383620006f7565b62000292576001600160a01b0383166200059d57604051637e27328960e01b815260048101829052602401620000d1565b60405163177e802f60e01b81526001600160a01b038316600482015260248101829052604401620000d1565b8080620005de57506001600160a01b03821615155b15620006c7576000620005f18462000780565b90506001600160a01b038316158015906200061e5750826001600160a01b0316816001600160a01b031614155b80156200065157506001600160a01b0380821660009081526005602090815260408083209387168352929052205460ff16155b156200067c5760405163a9fbf51f60e01b81526001600160a01b0384166004820152602401620000d1565b8115620006c55783856001600160a01b0316826001600160a01b03167f8c5be1e5ebec7d5bd14f71427d1e84f3dd0314c0f7b2291e5b200ac8c7c3b92560405160405180910390a45b505b5050600090815260046020526040902080546001600160a01b0319166001600160a01b0392909216919091179055565b60006001600160a01b03831615801590620007785750826001600160a01b0316846001600160a01b031614806200075357506001600160a01b0380851660009081526005602090815260408083209387168352929052205460ff165b806200077857506000828152600460205260409020546001600160a01b038481169116145b949350505050565b6000818152600260205260408120546001600160a01b031680620007bb57604051637e27328960e01b815260048101849052602401620000d1565b92915050565b80516001600160a01b0381168114620001d557600080fd5b600080600060608486031215620007ef57600080fd5b620007fa84620007c1565b92506200080a60208501620007c1565b91506200081a60408501620007c1565b90509250925092565b634e487b7160e01b600052604160045260246000fd5b600181811c908216806200084e57607f821691505b6020821081036200086f57634e487b7160e01b600052602260045260246000fd5b50919050565b601f82111562000292576000816000526020600020601f850160051c81016020861015620008a05750805b601f850160051c820191505b818110156200045757828155600101620008ac565b81516001600160401b03811115620008dd57620008dd62000823565b620008f581620008ee845462000839565b8462000875565b602080601f8311600181146200092d5760008415620009145750858301515b600019600386901b1c1916600185901b17855562000457565b600085815260208120601f198616915b828110156200095e578886015182559484019460019091019084016200093d565b50858210156200097d5787850151600019600388901b60f8161c191681555b5050505050600190811b01905550565b634e487b7160e01b600052601160045260246000fd5b600060018201620009b857620009b86200098d565b5060010190565b81810381811115620007bb57620007bb6200098d565b60008085851115620009e657600080fd5b83861115620009f457600080fd5b5050820193919092039150565b6001600160601b0319813581811691601485101562000a2a5780818660140360031b1b83161692505b505092915050565b600060018060a01b03808716835260208187166020850152856040850152608060608501528451915081608085015260005b8281101562000a825785810182015185820160a00152810162000a64565b5050600060a0828501015260a0601f19601f83011684010191505095945050505050565b60006020828403121562000ab957600080fd5b81516001600160e01b03198116811462000ad257600080fd5b9392505050565b60805161134262000b0360003960008181610224015281816102840152610bcf01526113426000f3fe608060405234801561001057600080fd5b50600436106101425760003560e01c8063715018a6116100b8578063b88d4fde1161007c578063b88d4fde146102d4578063c0715888146102e7578063c87b56dd146102fa578063e131fc0c1461030d578063e985e9c514610320578063f2fde38b1461033357600080fd5b8063715018a61461027a5780637da0a877146102825780638da5cb5b146102a857806395d89b41146102b9578063a22cb465146102c157600080fd5b806323b872dd1161010a57806323b872dd146101db5780632407497e146101ee57806342842e0e14610201578063572b6c05146102145780636352211e1461025457806370a082311461026757600080fd5b806301ffc9a71461014757806306661abd1461016f57806306fdde0314610186578063081812fc1461019b578063095ea7b3146101c6575b600080fd5b61015a610155366004610e9e565b610346565b60405190151581526020015b60405180910390f35b61017860075481565b604051908152602001610166565b61018e610371565b6040516101669190610f0b565b6101ae6101a9366004610f1e565b610403565b6040516001600160a01b039091168152602001610166565b6101d96101d4366004610f4c565b61042c565b005b6101d96101e9366004610f78565b610442565b6101d96101fc366004610fb9565b6104d9565b6101d961020f366004610f78565b610546565b61015a610222366004610fb9565b7f00000000000000000000000000000000000000000000000000000000000000006001600160a01b0390811691161490565b6101ae610262366004610f1e565b610566565b610178610275366004610fb9565b610571565b6101d96105b9565b7f00000000000000000000000000000000000000000000000000000000000000006101ae565b6006546001600160a01b03166101ae565b61018e6105cd565b6101d96102cf366004610fd6565b6105dc565b6101d96102e2366004611083565b6105ee565b6101786102f5366004610fb9565b61060d565b61018e610308366004610f1e565b610683565b6008546101ae906001600160a01b031681565b61015a61032e366004611132565b610721565b6101d9610341366004610fb9565b61074f565b60006001600160e01b03198216630321f74760e01b148061036b575061036b8261078d565b92915050565b60606000805461038090611160565b80601f01602080910402602001604051908101604052809291908181526020018280546103ac90611160565b80156103f95780601f106103ce576101008083540402835291602001916103f9565b820191906000526020600020905b8154815290600101906020018083116103dc57829003601f168201915b5050505050905090565b600061040e826107dd565b506000828152600460205260409020546001600160a01b031661036b565b61043e8282610439610816565b610825565b5050565b6001600160a01b03821661047157604051633250574960e11b8152600060048201526024015b60405180910390fd5b60006104858383610480610816565b610832565b9050836001600160a01b0316816001600160a01b0316146104d3576040516364283d7b60e01b81526001600160a01b0380861660048301526024820184905282166044820152606401610468565b50505050565b6104e161092b565b600880546001600160a01b0319166001600160a01b0383169081179091557fe7784d93cfbfa4408e19577e6cc0436f4dbb51214b70e100905dfce9def88c16610528610816565b6040516001600160a01b03909116815260200160405180910390a250565b610561838383604051806020016040528060008152506105ee565b505050565b600061036b826107dd565b60006001600160a01b03821661059d576040516322718ad960e21b815260006004820152602401610468565b506001600160a01b031660009081526003602052604090205490565b6105c161092b565b6105cb6000610989565b565b60606001805461038090611160565b61043e6105e7610816565b83836109db565b6105f9848484610442565b6104d3610604610816565b85858585610a7a565b600060076000815461061e906111b0565b918290555090506001600160a01b038216817f365b3162cd780731fc55a794b59494d472bc2af701007f581843a70673814698610659610816565b6040516001600160a01b03909116815260200160405180910390a361067e8282610ba5565b919050565b6008546060906001600160a01b0316806106ad575050604080516020810190915260008152919050565b604051636d02a25560e11b8152600481018490526001600160a01b0382169063da0544aa90602401600060405180830381865afa1580156106f2573d6000803e3d6000fd5b505050506040513d6000823e601f3d908101601f1916820160405261071a91908101906111c9565b9392505050565b6001600160a01b03918216600090815260056020908152604080832093909416825291909152205460ff1690565b61075761092b565b6001600160a01b03811661078157604051631e4fbdf760e01b815260006004820152602401610468565b61078a81610989565b50565b60006001600160e01b031982166380ac58cd60e01b14806107be57506001600160e01b03198216635b5e139f60e01b145b8061036b57506301ffc9a760e01b6001600160e01b031983161461036b565b6000818152600260205260408120546001600160a01b03168061036b57604051637e27328960e01b815260048101849052602401610468565b6000610820610bbf565b905090565b6105618383836001610c34565b6000828152600260205260408120546001600160a01b039081169083161561085f5761085f818486610d3a565b6001600160a01b0381161561089d5761087c600085600080610c34565b6001600160a01b038116600090815260036020526040902080546000190190555b6001600160a01b038516156108cc576001600160a01b0385166000908152600360205260409020805460010190555b60008481526002602052604080822080546001600160a01b0319166001600160a01b0389811691821790925591518793918516917fddf252ad1be2c89b69c2b068fc378daa952ba7f163c4a11628f55a4df523b3ef91a4949350505050565b610933610816565b6001600160a01b031661094e6006546001600160a01b031690565b6001600160a01b0316146105cb57610964610816565b60405163118cdaa760e01b81526001600160a01b039091166004820152602401610468565b600680546001600160a01b038381166001600160a01b0319831681179093556040519116919082907f8be0079c531659141344cd1fd0a4f28419497f9722a3daafe3b4186f6b6457e090600090a35050565b6001600160a01b038216610a0d57604051630b61174360e31b81526001600160a01b0383166004820152602401610468565b6001600160a01b03838116600081815260056020908152604080832094871680845294825291829020805460ff191686151590811790915591519182527f17307eab39ab6107e8899845ad3d59bd9653f200f220920489ca2b5937696c31910160405180910390a3505050565b6001600160a01b0383163b15610b9e57604051630a85bd0160e11b81526001600160a01b0384169063150b7a0290610abc908890889087908790600401611240565b6020604051808303816000875af1925050508015610af7575060408051601f3d908101601f19168201909252610af49181019061127d565b60015b610b60573d808015610b25576040519150601f19603f3d011682016040523d82523d6000602084013e610b2a565b606091505b508051600003610b5857604051633250574960e11b81526001600160a01b0385166004820152602401610468565b805181602001fd5b6001600160e01b03198116630a85bd0160e11b14610b9c57604051633250574960e11b81526001600160a01b0385166004820152602401610468565b505b5050505050565b61043e828260405180602001604052806000815250610d9e565b6000366014336001600160a01b037f000000000000000000000000000000000000000000000000000000000000000016148015610bfc5750808210155b15610c2c57600036610c0e838561129a565b610c199282906112ad565b610c22916112d7565b60601c9250505090565b339250505090565b8080610c4857506001600160a01b03821615155b15610d0a576000610c58846107dd565b90506001600160a01b03831615801590610c845750826001600160a01b0316816001600160a01b031614155b8015610c975750610c958184610721565b155b15610cc05760405163a9fbf51f60e01b81526001600160a01b0384166004820152602401610468565b8115610d085783856001600160a01b0316826001600160a01b03167f8c5be1e5ebec7d5bd14f71427d1e84f3dd0314c0f7b2291e5b200ac8c7c3b92560405160405180910390a45b505b5050600090815260046020526040902080546001600160a01b0319166001600160a01b0392909216919091179055565b610d45838383610dbd565b610561576001600160a01b038316610d7357604051637e27328960e01b815260048101829052602401610468565b60405163177e802f60e01b81526001600160a01b038316600482015260248101829052604401610468565b610da88383610e23565b610561610db3610816565b6000858585610a7a565b60006001600160a01b03831615801590610e1b5750826001600160a01b0316846001600160a01b03161480610df75750610df78484610721565b80610e1b57506000828152600460205260409020546001600160a01b038481169116145b949350505050565b6001600160a01b038216610e4d57604051633250574960e11b815260006004820152602401610468565b6000610e5b83836000610832565b90506001600160a01b03811615610561576040516339e3563760e11b815260006004820152602401610468565b6001600160e01b03198116811461078a57600080fd5b600060208284031215610eb057600080fd5b813561071a81610e88565b60005b83811015610ed6578181015183820152602001610ebe565b50506000910152565b60008151808452610ef7816020860160208601610ebb565b601f01601f19169290920160200192915050565b60208152600061071a6020830184610edf565b600060208284031215610f3057600080fd5b5035919050565b6001600160a01b038116811461078a57600080fd5b60008060408385031215610f5f57600080fd5b8235610f6a81610f37565b946020939093013593505050565b600080600060608486031215610f8d57600080fd5b8335610f9881610f37565b92506020840135610fa881610f37565b929592945050506040919091013590565b600060208284031215610fcb57600080fd5b813561071a81610f37565b60008060408385031215610fe957600080fd5b8235610ff481610f37565b91506020830135801515811461100957600080fd5b809150509250929050565b634e487b7160e01b600052604160045260246000fd5b604051601f8201601f1916810167ffffffffffffffff8111828210171561105357611053611014565b604052919050565b600067ffffffffffffffff82111561107557611075611014565b50601f01601f191660200190565b6000806000806080858703121561109957600080fd5b84356110a481610f37565b935060208501356110b481610f37565b925060408501359150606085013567ffffffffffffffff8111156110d757600080fd5b8501601f810187136110e857600080fd5b80356110fb6110f68261105b565b61102a565b81815288602083850101111561111057600080fd5b8160208401602083013760006020838301015280935050505092959194509250565b6000806040838503121561114557600080fd5b823561115081610f37565b9150602083013561100981610f37565b600181811c9082168061117457607f821691505b60208210810361119457634e487b7160e01b600052602260045260246000fd5b50919050565b634e487b7160e01b600052601160045260246000fd5b6000600182016111c2576111c261119a565b5060010190565b6000602082840312156111db57600080fd5b815167ffffffffffffffff8111156111f257600080fd5b8201601f8101841361120357600080fd5b80516112116110f68261105b565b81815285602083850101111561122657600080fd5b611237826020830160208601610ebb565b95945050505050565b6001600160a01b038581168252841660208201526040810183905260806060820181905260009061127390830184610edf565b9695505050505050565b60006020828403121561128f57600080fd5b815161071a81610e88565b8181038181111561036b5761036b61119a565b600080858511156112bd57600080fd5b838611156112ca57600080fd5b5050820193919092039150565b6bffffffffffffffffffffffff1981358181169160148510156113045780818660140360031b1b83161692505b50509291505056fea2646970667358221220f9fdd7264436db6a85a4d456887bfa9d3924cb95373a4e5fc40c6b371f983b1064736f6c63430008170033",
	"deployedBytecode": "0x608060405234801561001057600080fd5b50600436106101425760003560e01c8063715018a6116100b8578063b88d4fde1161007c578063b88d4fde146102d4578063c0715888146102e7578063c87b56dd146102fa578063e131fc0c1461030d578063e985e9c514610320578063f2fde38b1461033357600080fd5b8063715018a61461027a5780637da0a877146102825780638da5cb5b146102a857806395d89b41146102b9578063a22cb465146102c157600080fd5b806323b872dd1161010a57806323b872dd146101db5780632407497e146101ee57806342842e0e14610201578063572b6c05146102145780636352211e1461025457806370a082311461026757600080fd5b806301ffc9a71461014757806306661abd1461016f57806306fdde0314610186578063081812fc1461019b578063095ea7b3146101c6575b600080fd5b61015a610155366004610e9e565b610346565b60405190151581526020015b60405180910390f35b61017860075481565b604051908152602001610166565b61018e610371565b6040516101669190610f0b565b6101ae6101a9366004610f1e565b610403565b6040516001600160a01b039091168152602001610166565b6101d96101d4366004610f4c565b61042c565b005b6101d96101e9366004610f78565b610442565b6101d96101fc366004610fb9565b6104d9565b6101d961020f366004610f78565b610546565b61015a610222366004610fb9565b7f000000000000000000000000c29d6995ab3b0df4650ad643adeac55e7acbb5666001600160a01b0390811691161490565b6101ae610262366004610f1e565b610566565b610178610275366004610fb9565b610571565b6101d96105b9565b7f000000000000000000000000c29d6995ab3b0df4650ad643adeac55e7acbb5666101ae565b6006546001600160a01b03166101ae565b61018e6105cd565b6101d96102cf366004610fd6565b6105dc565b6101d96102e2366004611083565b6105ee565b6101786102f5366004610fb9565b61060d565b61018e610308366004610f1e565b610683565b6008546101ae906001600160a01b031681565b61015a61032e366004611132565b610721565b6101d9610341366004610fb9565b61074f565b60006001600160e01b03198216630321f74760e01b148061036b575061036b8261078d565b92915050565b60606000805461038090611160565b80601f01602080910402602001604051908101604052809291908181526020018280546103ac90611160565b80156103f95780601f106103ce576101008083540402835291602001916103f9565b820191906000526020600020905b8154815290600101906020018083116103dc57829003601f168201915b5050505050905090565b600061040e826107dd565b506000828152600460205260409020546001600160a01b031661036b565b61043e8282610439610816565b610825565b5050565b6001600160a01b03821661047157604051633250574960e11b8152600060048201526024015b60405180910390fd5b60006104858383610480610816565b610832565b9050836001600160a01b0316816001600160a01b0316146104d3576040516364283d7b60e01b81526001600160a01b0380861660048301526024820184905282166044820152606401610468565b50505050565b6104e161092b565b600880546001600160a01b0319166001600160a01b0383169081179091557fe7784d93cfbfa4408e19577e6cc0436f4dbb51214b70e100905dfce9def88c16610528610816565b6040516001600160a01b03909116815260200160405180910390a250565b610561838383604051806020016040528060008152506105ee565b505050565b600061036b826107dd565b60006001600160a01b03821661059d576040516322718ad960e21b815260006004820152602401610468565b506001600160a01b031660009081526003602052604090205490565b6105c161092b565b6105cb6000610989565b565b60606001805461038090611160565b61043e6105e7610816565b83836109db565b6105f9848484610442565b6104d3610604610816565b85858585610a7a565b600060076000815461061e906111b0565b918290555090506001600160a01b038216817f365b3162cd780731fc55a794b59494d472bc2af701007f581843a70673814698610659610816565b6040516001600160a01b03909116815260200160405180910390a361067e8282610ba5565b919050565b6008546060906001600160a01b0316806106ad575050604080516020810190915260008152919050565b604051636d02a25560e11b8152600481018490526001600160a01b0382169063da0544aa90602401600060405180830381865afa1580156106f2573d6000803e3d6000fd5b505050506040513d6000823e601f3d908101601f1916820160405261071a91908101906111c9565b9392505050565b6001600160a01b03918216600090815260056020908152604080832093909416825291909152205460ff1690565b61075761092b565b6001600160a01b03811661078157604051631e4fbdf760e01b815260006004820152602401610468565b61078a81610989565b50565b60006001600160e01b031982166380ac58cd60e01b14806107be57506001600160e01b03198216635b5e139f60e01b145b8061036b57506301ffc9a760e01b6001600160e01b031983161461036b565b6000818152600260205260408120546001600160a01b03168061036b57604051637e27328960e01b815260048101849052602401610468565b6000610820610bbf565b905090565b6105618383836001610c34565b6000828152600260205260408120546001600160a01b039081169083161561085f5761085f818486610d3a565b6001600160a01b0381161561089d5761087c600085600080610c34565b6001600160a01b038116600090815260036020526040902080546000190190555b6001600160a01b038516156108cc576001600160a01b0385166000908152600360205260409020805460010190555b60008481526002602052604080822080546001600160a01b0319166001600160a01b0389811691821790925591518793918516917fddf252ad1be2c89b69c2b068fc378daa952ba7f163c4a11628f55a4df523b3ef91a4949350505050565b610933610816565b6001600160a01b031661094e6006546001600160a01b031690565b6001600160a01b0316146105cb57610964610816565b60405163118cdaa760e01b81526001600160a01b039091166004820152602401610468565b600680546001600160a01b038381166001600160a01b0319831681179093556040519116919082907f8be0079c531659141344cd1fd0a4f28419497f9722a3daafe3b4186f6b6457e090600090a35050565b6001600160a01b038216610a0d57604051630b61174360e31b81526001600160a01b0383166004820152602401610468565b6001600160a01b03838116600081815260056020908152604080832094871680845294825291829020805460ff191686151590811790915591519182527f17307eab39ab6107e8899845ad3d59bd9653f200f220920489ca2b5937696c31910160405180910390a3505050565b6001600160a01b0383163b15610b9e57604051630a85bd0160e11b81526001600160a01b0384169063150b7a0290610abc908890889087908790600401611240565b6020604051808303816000875af1925050508015610af7575060408051601f3d908101601f19168201909252610af49181019061127d565b60015b610b60573d808015610b25576040519150601f19603f3d011682016040523d82523d6000602084013e610b2a565b606091505b508051600003610b5857604051633250574960e11b81526001600160a01b0385166004820152602401610468565b805181602001fd5b6001600160e01b03198116630a85bd0160e11b14610b9c57604051633250574960e11b81526001600160a01b0385166004820152602401610468565b505b5050505050565b61043e828260405180602001604052806000815250610d9e565b6000366014336001600160a01b037f000000000000000000000000c29d6995ab3b0df4650ad643adeac55e7acbb56616148015610bfc5750808210155b15610c2c57600036610c0e838561129a565b610c199282906112ad565b610c22916112d7565b60601c9250505090565b339250505090565b8080610c4857506001600160a01b03821615155b15610d0a576000610c58846107dd565b90506001600160a01b03831615801590610c845750826001600160a01b0316816001600160a01b031614155b8015610c975750610c958184610721565b155b15610cc05760405163a9fbf51f60e01b81526001600160a01b0384166004820152602401610468565b8115610d085783856001600160a01b0316826001600160a01b03167f8c5be1e5ebec7d5bd14f71427d1e84f3dd0314c0f7b2291e5b200ac8c7c3b92560405160405180910390a45b505b5050600090815260046020526040902080546001600160a01b0319166001600160a01b0392909216919091179055565b610d45838383610dbd565b610561576001600160a01b038316610d7357604051637e27328960e01b815260048101829052602401610468565b60405163177e802f60e01b81526001600160a01b038316600482015260248101829052604401610468565b610da88383610e23565b610561610db3610816565b6000858585610a7a565b60006001600160a01b03831615801590610e1b5750826001600160a01b0316846001600160a01b03161480610df75750610df78484610721565b80610e1b57506000828152600460205260409020546001600160a01b038481169116145b949350505050565b6001600160a01b038216610e4d57604051633250574960e11b815260006004820152602401610468565b6000610e5b83836000610832565b90506001600160a01b03811615610561576040516339e3563760e11b815260006004820152602401610468565b6001600160e01b03198116811461078a57600080fd5b600060208284031215610eb057600080fd5b813561071a81610e88565b60005b83811015610ed6578181015183820152602001610ebe565b50506000910152565b60008151808452610ef7816020860160208601610ebb565b601f01601f19169290920160200192915050565b60208152600061071a6020830184610edf565b600060208284031215610f3057600080fd5b5035919050565b6001600160a01b038116811461078a57600080fd5b60008060408385031215610f5f57600080fd5b8235610f6a81610f37565b946020939093013593505050565b600080600060608486031215610f8d57600080fd5b8335610f9881610f37565b92506020840135610fa881610f37565b929592945050506040919091013590565b600060208284031215610fcb57600080fd5b813561071a81610f37565b60008060408385031215610fe957600080fd5b8235610ff481610f37565b91506020830135801515811461100957600080fd5b809150509250929050565b634e487b7160e01b600052604160045260246000fd5b604051601f8201601f1916810167ffffffffffffffff8111828210171561105357611053611014565b604052919050565b600067ffffffffffffffff82111561107557611075611014565b50601f01601f191660200190565b6000806000806080858703121561109957600080fd5b84356110a481610f37565b935060208501356110b481610f37565b925060408501359150606085013567ffffffffffffffff8111156110d757600080fd5b8501601f810187136110e857600080fd5b80356110fb6110f68261105b565b61102a565b81815288602083850101111561111057600080fd5b8160208401602083013760006020838301015280935050505092959194509250565b6000806040838503121561114557600080fd5b823561115081610f37565b9150602083013561100981610f37565b600181811c9082168061117457607f821691505b60208210810361119457634e487b7160e01b600052602260045260246000fd5b50919050565b634e487b7160e01b600052601160045260246000fd5b6000600182016111c2576111c261119a565b5060010190565b6000602082840312156111db57600080fd5b815167ffffffffffffffff8111156111f257600080fd5b8201601f8101841361120357600080fd5b80516112116110f68261105b565b81815285602083850101111561122657600080fd5b611237826020830160208601610ebb565b95945050505050565b6001600160a01b038581168252841660208201526040810183905260806060820181905260009061127390830184610edf565b9695505050505050565b60006020828403121561128f57600080fd5b815161071a81610e88565b8181038181111561036b5761036b61119a565b600080858511156112bd57600080fd5b838611156112ca57600080fd5b5050820193919092039150565b6bffffffffffffffffffffffff1981358181169160148510156113045780818660140360031b1b83161692505b50509291505056fea2646970667358221220f9fdd7264436db6a85a4d456887bfa9d3924cb95373a4e5fc40c6b371f983b1064736f6c63430008170033",
	"gitCommit": "2c257a6d7529e08bc4aac39de4cacacc08d4628e",
	"history": []
}