{
	"format": "sphinx-sol-ct-artifact-1",
	"merkleRoot": "0x2578bbffaa060898cdbcdf794ddc64b61376588adbc21dd6068748984050fdd0",
	"address": "0x6ed8eedc0689bd6a8c7168301897a0113c28bba4",
	"sourceName": "src/JBChainlinkV3PriceFeed.sol",
	"contractName": "JBChainlinkV3PriceFeed",
	"chainId": "0x66eee",
	"abi": [
		{
			"inputs": [
				{
					"internalType": "contract AggregatorV3Interface",
					"name": "feed",
					"type": "address"
				},
				{
					"internalType": "uint256",
					"name": "threshold",
					"type": "uint256"
				}
			],
			"stateMutability": "nonpayable",
			"type": "constructor"
		},
		{
			"inputs": [],
			"name": "FEED",
			"outputs": [
				{
					"internalType": "contract AggregatorV3Interface",
					"name": "",
					"type": "address"
				}
			],
			"stateMutability": "view",
			"type": "function"
		},
		{
			"inputs": [],
			"name": "THRESHOLD",
			"outputs": [
				{
					"internalType": "uint256",
					"name": "",
					"type": "uint256"
				}
			],
			"stateMutability": "view",
			"type": "function"
		},
		{
			"inputs": [
				{
					"internalType": "uint256",
					"name": "decimals",
					"type": "uint256"
				}
			],
			"name": "currentUnitPrice",
			"outputs": [
				{
					"internalType": "uint256",
					"name": "",
					"type": "uint256"
				}
			],
			"stateMutability": "view",
			"type": "function"
		},
		{
			"inputs": [],
			"name": "JBChainlinkV3PriceFeed_IncompleteRound",
			"type": "error"
		},
		{
			"inputs": [
				{
					"internalType": "int256",
					"name": "price",
					"type": "int256"
				}
			],
			"name": "JBChainlinkV3PriceFeed_NegativePrice",
			"type": "error"
		},
		{
			"inputs": [
				{
					"internalType": "uint256",
					"name": "timestamp",
					"type": "uint256"
				},
				{
					"internalType": "uint256",
					"name": "threshold",
					"type": "uint256"
				},
				{
					"internalType": "uint256",
					"name": "updatedAt",
					"type": "uint256"
				}
			],
			"name": "JBChainlinkV3PriceFeed_StalePrice",
			"type": "error"
		}
	],
	"args": [],
	"solcInputHash": "51e2de1557bafeed0f574c9089293121",
	"bytecode": "0x60c060405234801561001057600080fd5b5060405161062a38038061062a83398101604081905261002f91610045565b6001600160a01b0390911660805260a05261007f565b6000806040838503121561005857600080fd5b82516001600160a01b038116811461006f57600080fd5b6020939093015192949293505050565b60805160a05161056d6100bd60003960008181608f0152818161015e01526101a3015260008181604b0152818160d40152610224015261056d6000f3fe608060405234801561001057600080fd5b50600436106100415760003560e01c80630beaf38c14610046578063785ffb371461008a578063d3f5c15f146100bf575b600080fd5b61006d7f000000000000000000000000000000000000000000000000000000000000000081565b6040516001600160a01b0390911681526020015b60405180910390f35b6100b17f000000000000000000000000000000000000000000000000000000000000000081565b604051908152602001610081565b6100b16100cd366004610321565b60008060007f00000000000000000000000000000000000000000000000000000000000000006001600160a01b031663feaf968c6040518163ffffffff1660e01b815260040160a060405180830381865afa158015610130573d6000803e3d6000fd5b505050506040513d601f19601f820116820180604052508101906101549190610359565b50935050925050807f000000000000000000000000000000000000000000000000000000000000000061018791906103bf565b4211156101db576040516352b4aba960e11b81524260048201527f00000000000000000000000000000000000000000000000000000000000000006024820152604481018290526064015b60405180910390fd5b806000036101fc57604051631d70a56560e01b815260040160405180910390fd5b600082136102205760405163e374febf60e01b8152600481018390526024016101d2565b60007f00000000000000000000000000000000000000000000000000000000000000006001600160a01b031663313ce5676040518163ffffffff1660e01b8152600401602060405180830381865afa158015610280573d6000803e3d6000fd5b505050506040513d601f19601f820116820180604052508101906102a491906103d8565b60ff1690506102b48382876102bd565b95945050505050565b60008282036102cd57508261031a565b828211156102fb576102df83836103fb565b6102ea90600a6104f2565b6102f490856104fe565b905061031a565b61030582846103fb565b61031090600a6104f2565b6102f49085610515565b9392505050565b60006020828403121561033357600080fd5b5035919050565b805169ffffffffffffffffffff8116811461035457600080fd5b919050565b600080600080600060a0868803121561037157600080fd5b61037a8661033a565b945060208601519350604086015192506060860151915061039d6080870161033a565b90509295509295909350565b634e487b7160e01b600052601160045260246000fd5b808201808211156103d2576103d26103a9565b92915050565b6000602082840312156103ea57600080fd5b815160ff8116811461031a57600080fd5b818103818111156103d2576103d26103a9565b600181815b8085111561044957816000190482111561042f5761042f6103a9565b8085161561043c57918102915b93841c9390800290610413565b509250929050565b600082610460575060016103d2565b8161046d575060006103d2565b8160018114610483576002811461048d576104a9565b60019150506103d2565b60ff84111561049e5761049e6103a9565b50506001821b6103d2565b5060208310610133831016604e8410600b84101617156104cc575081810a6103d2565b6104d6838361040e565b80600019048211156104ea576104ea6103a9565b029392505050565b600061031a8383610451565b80820281158282048414176103d2576103d26103a9565b60008261053257634e487b7160e01b600052601260045260246000fd5b50049056fea2646970667358221220c893f38b4a0f15b998afa95ae68839cd38e49d02e23a307f258501621c1e9adf64736f6c63430008170033",
	"deployedBytecode": "0x608060405234801561001057600080fd5b50600436106100415760003560e01c80630beaf38c14610046578063785ffb371461008a578063d3f5c15f146100bf575b600080fd5b61006d7f0000000000000000000000000153002d20b96532c639313c2d54c3da0910930981565b6040516001600160a01b0390911681526020015b60405180910390f35b6100b17f000000000000000000000000000000000000000000000000000000000001518081565b604051908152602001610081565b6100b16100cd366004610321565b60008060007f0000000000000000000000000153002d20b96532c639313c2d54c3da091093096001600160a01b031663feaf968c6040518163ffffffff1660e01b815260040160a060405180830381865afa158015610130573d6000803e3d6000fd5b505050506040513d601f19601f820116820180604052508101906101549190610359565b50935050925050807f000000000000000000000000000000000000000000000000000000000001518061018791906103bf565b4211156101db576040516352b4aba960e11b81524260048201527f00000000000000000000000000000000000000000000000000000000000151806024820152604481018290526064015b60405180910390fd5b806000036101fc57604051631d70a56560e01b815260040160405180910390fd5b600082136102205760405163e374febf60e01b8152600481018390526024016101d2565b60007f0000000000000000000000000153002d20b96532c639313c2d54c3da091093096001600160a01b031663313ce5676040518163ffffffff1660e01b8152600401602060405180830381865afa158015610280573d6000803e3d6000fd5b505050506040513d601f19601f820116820180604052508101906102a491906103d8565b60ff1690506102b48382876102bd565b95945050505050565b60008282036102cd57508261031a565b828211156102fb576102df83836103fb565b6102ea90600a6104f2565b6102f490856104fe565b905061031a565b61030582846103fb565b61031090600a6104f2565b6102f49085610515565b9392505050565b60006020828403121561033357600080fd5b5035919050565b805169ffffffffffffffffffff8116811461035457600080fd5b919050565b600080600080600060a0868803121561037157600080fd5b61037a8661033a565b945060208601519350604086015192506060860151915061039d6080870161033a565b90509295509295909350565b634e487b7160e01b600052601160045260246000fd5b808201808211156103d2576103d26103a9565b92915050565b6000602082840312156103ea57600080fd5b815160ff8116811461031a57600080fd5b818103818111156103d2576103d26103a9565b600181815b8085111561044957816000190482111561042f5761042f6103a9565b8085161561043c57918102915b93841c9390800290610413565b509250929050565b600082610460575060016103d2565b8161046d575060006103d2565b8160018114610483576002811461048d576104a9565b60019150506103d2565b60ff84111561049e5761049e6103a9565b50506001821b6103d2565b5060208310610133831016604e8410600b84101617156104cc575081810a6103d2565b6104d6838361040e565b80600019048211156104ea576104ea6103a9565b029392505050565b600061031a8383610451565b80820281158282048414176103d2576103d26103a9565b60008261053257634e487b7160e01b600052601260045260246000fd5b50049056fea2646970667358221220c893f38b4a0f15b998afa95ae68839cd38e49d02e23a307f258501621c1e9adf64736f6c63430008170033",
	"gitCommit": "c2c88c170759f2e64fcae5ce98f887bcc4d85883",
	"history": [
		{
			"format": "sphinx-sol-ct-artifact-1",
			"merkleRoot": "0x662d5d1af4248bb809892a26184ccbe106b81834199b35fb7ab48461da3dc165",
			"address": "0xa22452970e96760a8b4cf7983cbd11be3cc0dc03",
			"sourceName": "src/JBChainlinkV3PriceFeed.sol",
			"contractName": "JBChainlinkV3PriceFeed",
			"chainId": "0x66eee",
			"abi": [
				{
					"inputs": [
						{
							"internalType": "contract AggregatorV3Interface",
							"name": "feed",
							"type": "address"
						},
						{
							"internalType": "uint256",
							"name": "threshold",
							"type": "uint256"
						}
					],
					"stateMutability": "nonpayable",
					"type": "constructor"
				},
				{
					"inputs": [],
					"name": "FEED",
					"outputs": [
						{
							"internalType": "contract AggregatorV3Interface",
							"name": "",
							"type": "address"
						}
					],
					"stateMutability": "view",
					"type": "function"
				},
				{
					"inputs": [],
					"name": "THRESHOLD",
					"outputs": [
						{
							"internalType": "uint256",
							"name": "",
							"type": "uint256"
						}
					],
					"stateMutability": "view",
					"type": "function"
				},
				{
					"inputs": [
						{
							"internalType": "uint256",
							"name": "decimals",
							"type": "uint256"
						}
					],
					"name": "currentUnitPrice",
					"outputs": [
						{
							"internalType": "uint256",
							"name": "",
							"type": "uint256"
						}
					],
					"stateMutability": "view",
					"type": "function"
				},
				{
					"inputs": [],
					"name": "JBChainlinkV3PriceFeed_IncompleteRound",
					"type": "error"
				},
				{
					"inputs": [
						{
							"internalType": "int256",
							"name": "price",
							"type": "int256"
						}
					],
					"name": "JBChainlinkV3PriceFeed_NegativePrice",
					"type": "error"
				},
				{
					"inputs": [
						{
							"internalType": "uint256",
							"name": "timestamp",
							"type": "uint256"
						},
						{
							"internalType": "uint256",
							"name": "threshold",
							"type": "uint256"
						},
						{
							"internalType": "uint256",
							"name": "updatedAt",
							"type": "uint256"
						}
					],
					"name": "JBChainlinkV3PriceFeed_StalePrice",
					"type": "error"
				}
			],
			"args": [],
			"solcInputHash": "51e2de1557bafeed0f574c9089293121",
			"receipt": {
				"type": "0x2",
				"status": "0x1",
				"cumulativeGasUsed": "0x864d9",
				"logs": [
					{
						"address": "0xa2ea7657440875bf916cbfc0cfa88f13e38ad463",
						"topics": [
							"0x572f161235911da04685a68c06adf558fc7e4a36909dca394650e0adc19cc93d",
							"0x000000000000000000000000755ff2f75a0a586ecfa2b9a3c959cb662458a105",
							"0x000000000000000000000000691d6d2e1f0fb22b67e7471310ddcb3a881cc968",
							"0xd53f7ea234441bb6981dc0ec93ba198c93e6668450b8e7be02ee559b1b4dbbc9"
						],
						"data": "0x0000000000000000000000000000000000000000000000000000000000000000",
						"blockHash": "0xe0e20a593aa21d0288d5d5c4be222d4a25bf5f61a405fbd4d249b593355ad0d8",
						"blockNumber": "0xb834025",
						"blockTimestamp": "0x68c2b1f7",
						"transactionHash": "0x8ab42b29539d69521c2c63f84aeeef9c6a7e2d00e5e4ccbaeca2b003fca9deb9",
						"transactionIndex": "0x2",
						"logIndex": "0x4",
						"removed": false
					},
					{
						"address": "0x80a8f7a4bd75b539ce26937016df607fdc9abeb5",
						"topics": [
							"0x6895c13664aa4f67288b25d7a21d7aaa34916e355fb9b6fae0a139a9085becb8",
							"0x000000000000000000000000691d6d2e1f0fb22b67e7471310ddcb3a881cc968"
						],
						"data": "0x",
						"blockHash": "0xe0e20a593aa21d0288d5d5c4be222d4a25bf5f61a405fbd4d249b593355ad0d8",
						"blockNumber": "0xb834025",
						"blockTimestamp": "0x68c2b1f7",
						"transactionHash": "0x8ab42b29539d69521c2c63f84aeeef9c6a7e2d00e5e4ccbaeca2b003fca9deb9",
						"transactionIndex": "0x2",
						"logIndex": "0x5",
						"removed": false
					},
					{
						"address": "0x691d6d2e1f0fb22b67e7471310ddcb3a881cc968",
						"topics": [
							"0xa65fb05c5808f5f389d72edeaf719ce38f4cc55c1f69ca3cbfb31c21501caa07",
							"0x662d5d1af4248bb809892a26184ccbe106b81834199b35fb7ab48461da3dc165"
						],
						"data": "0x0000000000000000000000000000000000000000000000000000000000000002",
						"blockHash": "0xe0e20a593aa21d0288d5d5c4be222d4a25bf5f61a405fbd4d249b593355ad0d8",
						"blockNumber": "0xb834025",
						"blockTimestamp": "0x68c2b1f7",
						"transactionHash": "0x8ab42b29539d69521c2c63f84aeeef9c6a7e2d00e5e4ccbaeca2b003fca9deb9",
						"transactionIndex": "0x2",
						"logIndex": "0x6",
						"removed": false
					}
				],
				"logsBloom": "0x00000000000010000000000000080000000800000000080000000000000400000000000000000000000002000040000000000000000000000000000000000000000000000000200000008000000000000000000000000000000000000000000000000000000008000000000000000000000000000000000000000000000000000800000000000000000104000000100000000000100000000020000000000000004000040002000000000000000000002200000000000000000000000044000000000002004000000000000000000000000000000000000000000000000000020000000000000000000100000000000200000000000080000000000000200000",
				"transactionHash": "0x8ab42b29539d69521c2c63f84aeeef9c6a7e2d00e5e4ccbaeca2b003fca9deb9",
				"transactionIndex": "0x2",
				"blockHash": "0xe0e20a593aa21d0288d5d5c4be222d4a25bf5f61a405fbd4d249b593355ad0d8",
				"blockNumber": "0xb834025",
				"gasUsed": "0x6a6dd",
				"effectiveGasPrice": "0x5f5e100",
				"from": "0x755ff2f75a0a586ecfa2b9a3c959cb662458a105",
				"to": "0xa2ea7657440875bf916cbfc0cfa88f13e38ad463",
				"contractAddress": null
			},
			"bytecode": "0x60c060405234801561001057600080fd5b5060405161062a38038061062a83398101604081905261002f91610045565b6001600160a01b0390911660805260a05261007f565b6000806040838503121561005857600080fd5b82516001600160a01b038116811461006f57600080fd5b6020939093015192949293505050565b60805160a05161056d6100bd60003960008181608f0152818161015e01526101a3015260008181604b0152818160d40152610224015261056d6000f3fe608060405234801561001057600080fd5b50600436106100415760003560e01c80630beaf38c14610046578063785ffb371461008a578063d3f5c15f146100bf575b600080fd5b61006d7f000000000000000000000000000000000000000000000000000000000000000081565b6040516001600160a01b0390911681526020015b60405180910390f35b6100b17f000000000000000000000000000000000000000000000000000000000000000081565b604051908152602001610081565b6100b16100cd366004610321565b60008060007f00000000000000000000000000000000000000000000000000000000000000006001600160a01b031663feaf968c6040518163ffffffff1660e01b815260040160a060405180830381865afa158015610130573d6000803e3d6000fd5b505050506040513d601f19601f820116820180604052508101906101549190610359565b50935050925050807f000000000000000000000000000000000000000000000000000000000000000061018791906103bf565b4211156101db576040516352b4aba960e11b81524260048201527f00000000000000000000000000000000000000000000000000000000000000006024820152604481018290526064015b60405180910390fd5b806000036101fc57604051631d70a56560e01b815260040160405180910390fd5b600082136102205760405163e374febf60e01b8152600481018390526024016101d2565b60007f00000000000000000000000000000000000000000000000000000000000000006001600160a01b031663313ce5676040518163ffffffff1660e01b8152600401602060405180830381865afa158015610280573d6000803e3d6000fd5b505050506040513d601f19601f820116820180604052508101906102a491906103d8565b60ff1690506102b48382876102bd565b95945050505050565b60008282036102cd57508261031a565b828211156102fb576102df83836103fb565b6102ea90600a6104f2565b6102f490856104fe565b905061031a565b61030582846103fb565b61031090600a6104f2565b6102f49085610515565b9392505050565b60006020828403121561033357600080fd5b5035919050565b805169ffffffffffffffffffff8116811461035457600080fd5b919050565b600080600080600060a0868803121561037157600080fd5b61037a8661033a565b945060208601519350604086015192506060860151915061039d6080870161033a565b90509295509295909350565b634e487b7160e01b600052601160045260246000fd5b808201808211156103d2576103d26103a9565b92915050565b6000602082840312156103ea57600080fd5b815160ff8116811461031a57600080fd5b818103818111156103d2576103d26103a9565b600181815b8085111561044957816000190482111561042f5761042f6103a9565b8085161561043c57918102915b93841c9390800290610413565b509250929050565b600082610460575060016103d2565b8161046d575060006103d2565b8160018114610483576002811461048d576104a9565b60019150506103d2565b60ff84111561049e5761049e6103a9565b50506001821b6103d2565b5060208310610133831016604e8410600b84101617156104cc575081810a6103d2565b6104d6838361040e565b80600019048211156104ea576104ea6103a9565b029392505050565b600061031a8383610451565b80820281158282048414176103d2576103d26103a9565b60008261053257634e487b7160e01b600052601260045260246000fd5b50049056fea2646970667358221220c893f38b4a0f15b998afa95ae68839cd38e49d02e23a307f258501621c1e9adf64736f6c63430008170033",
			"deployedBytecode": "0x608060405234801561001057600080fd5b50600436106100415760003560e01c80630beaf38c14610046578063785ffb371461008a578063d3f5c15f146100bf575b600080fd5b61006d7f000000000000000000000000d30e2101a97dcbaebcbc04f14c3f624e67a3516581565b6040516001600160a01b0390911681526020015b60405180910390f35b6100b17f0000000000000000000000000000000000000000000000000000000000000e1081565b604051908152602001610081565b6100b16100cd366004610321565b60008060007f000000000000000000000000d30e2101a97dcbaebcbc04f14c3f624e67a351656001600160a01b031663feaf968c6040518163ffffffff1660e01b815260040160a060405180830381865afa158015610130573d6000803e3d6000fd5b505050506040513d601f19601f820116820180604052508101906101549190610359565b50935050925050807f0000000000000000000000000000000000000000000000000000000000000e1061018791906103bf565b4211156101db576040516352b4aba960e11b81524260048201527f0000000000000000000000000000000000000000000000000000000000000e106024820152604481018290526064015b60405180910390fd5b806000036101fc57604051631d70a56560e01b815260040160405180910390fd5b600082136102205760405163e374febf60e01b8152600481018390526024016101d2565b60007f000000000000000000000000d30e2101a97dcbaebcbc04f14c3f624e67a351656001600160a01b031663313ce5676040518163ffffffff1660e01b8152600401602060405180830381865afa158015610280573d6000803e3d6000fd5b505050506040513d601f19601f820116820180604052508101906102a491906103d8565b60ff1690506102b48382876102bd565b95945050505050565b60008282036102cd57508261031a565b828211156102fb576102df83836103fb565b6102ea90600a6104f2565b6102f490856104fe565b905061031a565b61030582846103fb565b61031090600a6104f2565b6102f49085610515565b9392505050565b60006020828403121561033357600080fd5b5035919050565b805169ffffffffffffffffffff8116811461035457600080fd5b919050565b600080600080600060a0868803121561037157600080fd5b61037a8661033a565b945060208601519350604086015192506060860151915061039d6080870161033a565b90509295509295909350565b634e487b7160e01b600052601160045260246000fd5b808201808211156103d2576103d26103a9565b92915050565b6000602082840312156103ea57600080fd5b815160ff8116811461031a57600080fd5b818103818111156103d2576103d26103a9565b600181815b8085111561044957816000190482111561042f5761042f6103a9565b8085161561043c57918102915b93841c9390800290610413565b509250929050565b600082610460575060016103d2565b8161046d575060006103d2565b8160018114610483576002811461048d576104a9565b60019150506103d2565b60ff84111561049e5761049e6103a9565b50506001821b6103d2565b5060208310610133831016604e8410600b84101617156104cc575081810a6103d2565b6104d6838361040e565b80600019048211156104ea576104ea6103a9565b029392505050565b600061031a8383610451565b80820281158282048414176103d2576103d26103a9565b60008261053257634e487b7160e01b600052601260045260246000fd5b50049056fea2646970667358221220c893f38b4a0f15b998afa95ae68839cd38e49d02e23a307f258501621c1e9adf64736f6c63430008170033",
			"metadata": "{\"compiler\":{\"version\":\"0.8.23+commit.f704f362\"},\"language\":\"Solidity\",\"output\":{\"abi\":[{\"inputs\":[{\"internalType\":\"contract AggregatorV3Interface\",\"name\":\"feed\",\"type\":\"address\"},{\"internalType\":\"uint256\",\"name\":\"threshold\",\"type\":\"uint256\"}],\"stateMutability\":\"nonpayable\",\"type\":\"constructor\"},{\"inputs\":[],\"name\":\"JBChainlinkV3PriceFeed_IncompleteRound\",\"type\":\"error\"},{\"inputs\":[{\"internalType\":\"int256\",\"name\":\"price\",\"type\":\"int256\"}],\"name\":\"JBChainlinkV3PriceFeed_NegativePrice\",\"type\":\"error\"},{\"inputs\":[{\"internalType\":\"uint256\",\"name\":\"timestamp\",\"type\":\"uint256\"},{\"internalType\":\"uint256\",\"name\":\"threshold\",\"type\":\"uint256\"},{\"internalType\":\"uint256\",\"name\":\"updatedAt\",\"type\":\"uint256\"}],\"name\":\"JBChainlinkV3PriceFeed_StalePrice\",\"type\":\"error\"},{\"inputs\":[],\"name\":\"FEED\",\"outputs\":[{\"internalType\":\"contract AggregatorV3Interface\",\"name\":\"\",\"type\":\"address\"}],\"stateMutability\":\"view\",\"type\":\"function\"},{\"inputs\":[],\"name\":\"THRESHOLD\",\"outputs\":[{\"internalType\":\"uint256\",\"name\":\"\",\"type\":\"uint256\"}],\"stateMutability\":\"view\",\"type\":\"function\"},{\"inputs\":[{\"internalType\":\"uint256\",\"name\":\"decimals\",\"type\":\"uint256\"}],\"name\":\"currentUnitPrice\",\"outputs\":[{\"internalType\":\"uint256\",\"name\":\"\",\"type\":\"uint256\"}],\"stateMutability\":\"view\",\"type\":\"function\"}],\"devdoc\":{\"kind\":\"dev\",\"methods\":{\"constructor\":{\"params\":{\"feed\":\"The Chainlink feed to report prices from.\",\"threshold\":\"How many seconds old a price update may be.\"}},\"currentUnitPrice(uint256)\":{\"params\":{\"decimals\":\"The number of decimals the return value should use.\"},\"returns\":{\"_0\":\"The current unit price from the feed, as a fixed point number with the specified number of decimals.\"}}},\"version\":1},\"userdoc\":{\"kind\":\"user\",\"methods\":{\"FEED()\":{\"notice\":\"The Chainlink feed that prices are reported from.\"},\"THRESHOLD()\":{\"notice\":\"How many seconds old a Chainlink price update is allowed to be before considered \\\"stale\\\".\"},\"currentUnitPrice(uint256)\":{\"notice\":\"Gets the current price (per 1 unit) from the feed.\"}},\"version\":1}},\"settings\":{\"compilationTarget\":{\"src/JBChainlinkV3PriceFeed.sol\":\"JBChainlinkV3PriceFeed\"},\"evmVersion\":\"paris\",\"libraries\":{},\"metadata\":{\"bytecodeHash\":\"ipfs\"},\"optimizer\":{\"enabled\":true,\"runs\":200},\"remappings\":[\"@arbitrum/=node_modules/@arbitrum/\",\"@bananapus/=node_modules/@bananapus/\",\"@chainlink/=node_modules/@chainlink/\",\"@eth-optimism/=node_modules/@eth-optimism/\",\"@offchainlabs/=node_modules/@offchainlabs/\",\"@openzeppelin/=node_modules/@openzeppelin/\",\"@prb/=node_modules/@prb/\",\"@scroll-tech/=node_modules/@scroll-tech/\",\"@sphinx-labs/contracts/=lib/sphinx/packages/contracts/contracts/foundry/\",\"@uniswap/=node_modules/@uniswap/\",\"@zksync/=node_modules/@zksync/\",\"forge-std/=lib/forge-std/src/\",\"hardhat/=node_modules/hardhat/\",\"solmate/=node_modules/solmate/\",\"sphinx/=lib/sphinx/packages/contracts/contracts/forge-std/src/\"]},\"sources\":{\"node_modules/@chainlink/contracts/src/v0.8/shared/interfaces/AggregatorV3Interface.sol\":{\"keccak256\":\"0x257a8d28fa83d3d942547c8e129ef465e4b5f3f31171e7be4739a4c98da6b4f0\",\"license\":\"MIT\",\"urls\":[\"bzz-raw://6d39e11b1dc7b9b8ccdabbc9be442ab7cda4a81c748f57e316dcb1bcb4a28bf9\",\"dweb:/ipfs/QmaG6vz6W6iEUBsbHSBob5mdcitYxWjoygxREHpsJHfWrS\"]},\"src/JBChainlinkV3PriceFeed.sol\":{\"keccak256\":\"0x8dc3218e435c83137984f7791e6e25c3ee2fad0499e7f5bbe77817452ac2d6b3\",\"license\":\"MIT\",\"urls\":[\"bzz-raw://dbd141f17a207cadc2486dcbebc74c866be2d21f880e428520222d67f794c64f\",\"dweb:/ipfs/QmU22MDrSdfmBSgmjqpYrXAybo4qsqbkRgQ2RvaPEDsb7e\"]},\"src/interfaces/IJBPriceFeed.sol\":{\"keccak256\":\"0x4bd84c0f1a5d4729ed709bcddd43f4c50ec4a165ece79780af8dce482ed07d4a\",\"license\":\"MIT\",\"urls\":[\"bzz-raw://62bac4bfb6982fb002f620c77e5c445e62d50241a5aa64a07e51d929f5a42180\",\"dweb:/ipfs/QmWgJUDreVY2BuMX38a1iUUR5kNbMwGnKG3VvurB7oZtuM\"]},\"src/libraries/JBFixedPointNumber.sol\":{\"keccak256\":\"0x687bdcb1353e2d29f1bd38bbadeb4ab0f2cbb351688f77e56365a25044577b53\",\"license\":\"MIT\",\"urls\":[\"bzz-raw://ad7f8756cf5f209cff9fbe8a65e799e29c159da55a3a2d532298acfb9d567311\",\"dweb:/ipfs/QmZMCox7uDwZrnbiZnZheizrG6PAisuHVuJgXK9rHn7PKU\"]}},\"version\":1}",
			"gitCommit": "c2c88c170759f2e64fcae5ce98f887bcc4d85883",
			"history": []
		}
	]
}