{
	"format": "sphinx-sol-ct-artifact-1",
	"merkleRoot": "0x662d5d1af4248bb809892a26184ccbe106b81834199b35fb7ab48461da3dc165",
	"address": "0xcffdd1303f24145bd2c84e7bf15af1eb6ab924d7",
	"sourceName": "src/periphery/JBDeadline1Day.sol",
	"contractName": "JBDeadline1Day",
	"chainId": "0x66eee",
	"abi": [
		{
			"inputs": [],
			"stateMutability": "nonpayable",
			"type": "constructor"
		},
		{
			"inputs": [],
			"name": "DURATION",
			"outputs": [
				{
					"internalType": "uint256",
					"name": "",
					"type": "uint256"
				}
			],
			"stateMutability": "view",
			"type": "function"
		},
		{
			"inputs": [
				{
					"internalType": "uint256",
					"name": "",
					"type": "uint256"
				},
				{
					"components": [
						{
							"internalType": "uint48",
							"name": "cycleNumber",
							"type": "uint48"
						},
						{
							"internalType": "uint48",
							"name": "id",
							"type": "uint48"
						},
						{
							"internalType": "uint48",
							"name": "basedOnId",
							"type": "uint48"
						},
						{
							"internalType": "uint48",
							"name": "start",
							"type": "uint48"
						},
						{
							"internalType": "uint32",
							"name": "duration",
							"type": "uint32"
						},
						{
							"internalType": "uint112",
							"name": "weight",
							"type": "uint112"
						},
						{
							"internalType": "uint32",
							"name": "weightCutPercent",
							"type": "uint32"
						},
						{
							"internalType": "contract IJBRulesetApprovalHook",
							"name": "approvalHook",
							"type": "address"
						},
						{
							"internalType": "uint256",
							"name": "metadata",
							"type": "uint256"
						}
					],
					"internalType": "struct JBRuleset",
					"name": "ruleset",
					"type": "tuple"
				}
			],
			"name": "approvalStatusOf",
			"outputs": [
				{
					"internalType": "enum JBApprovalStatus",
					"name": "",
					"type": "uint8"
				}
			],
			"stateMutability": "view",
			"type": "function"
		},
		{
			"inputs": [
				{
					"internalType": "bytes4",
					"name": "interfaceId",
					"type": "bytes4"
				}
			],
			"name": "supportsInterface",
			"outputs": [
				{
					"internalType": "bool",
					"name": "",
					"type": "bool"
				}
			],
			"stateMutability": "view",
			"type": "function"
		}
	],
	"args": [],
	"solcInputHash": "51e2de1557bafeed0f574c9089293121",
	"bytecode": "0x60a060405234801561001057600080fd5b506201518060805260805161039d61004060003960008181607301528181610126015261016c015261039d6000f3fe608060405234801561001057600080fd5b50600436106100415760003560e01c806301ffc9a7146100465780631be052891461006e5780632bd6bd4d146100a3575b600080fd5b6100596100543660046101aa565b6100c3565b60405190151581526020015b60405180910390f35b6100957f000000000000000000000000000000000000000000000000000000000000000081565b604051908152602001610065565b6100b66100b1366004610270565b6100fa565b604051610065919061033f565b60006001600160e01b03198216630c0dbbf160e21b14806100f457506001600160e01b031982166301ffc9a760e01b145b92915050565b6000816060015165ffffffffffff16826020015165ffffffffffff161115610124575060056100f4565b7f0000000000000000000000000000000000000000000000000000000000000000826020015183606001510365ffffffffffff16106101a057816060015165ffffffffffff167f00000000000000000000000000000000000000000000000000000000000000004201106101995760046101a3565b60036101a3565b60055b9392505050565b6000602082840312156101bc57600080fd5b81356001600160e01b0319811681146101a357600080fd5b604051610120810167ffffffffffffffff8111828210171561020657634e487b7160e01b600052604160045260246000fd5b60405290565b803565ffffffffffff8116811461022257600080fd5b919050565b803563ffffffff8116811461022257600080fd5b80356dffffffffffffffffffffffffffff8116811461022257600080fd5b80356001600160a01b038116811461022257600080fd5b60008082840361014081121561028557600080fd5b8335925061012080601f198301121561029d57600080fd5b6102a56101d4565b91506102b36020860161020c565b82526102c16040860161020c565b60208301526102d26060860161020c565b60408301526102e36080860161020c565b60608301526102f460a08601610227565b608083015261030560c0860161023b565b60a083015261031660e08601610227565b60c0830152610100610329818701610259565b60e0840152940135938101939093525092909150565b602081016006831061036157634e487b7160e01b600052602160045260246000fd5b9190529056fea2646970667358221220b8cda0ac29e1354b2c6e093d0dcd4ca650a90d1bec429a7090de9fcaf291b00864736f6c63430008170033",
	"deployedBytecode": "0x608060405234801561001057600080fd5b50600436106100415760003560e01c806301ffc9a7146100465780631be052891461006e5780632bd6bd4d146100a3575b600080fd5b6100596100543660046101aa565b6100c3565b60405190151581526020015b60405180910390f35b6100957f000000000000000000000000000000000000000000000000000000000001518081565b604051908152602001610065565b6100b66100b1366004610270565b6100fa565b604051610065919061033f565b60006001600160e01b03198216630c0dbbf160e21b14806100f457506001600160e01b031982166301ffc9a760e01b145b92915050565b6000816060015165ffffffffffff16826020015165ffffffffffff161115610124575060056100f4565b7f0000000000000000000000000000000000000000000000000000000000015180826020015183606001510365ffffffffffff16106101a057816060015165ffffffffffff167f00000000000000000000000000000000000000000000000000000000000151804201106101995760046101a3565b60036101a3565b60055b9392505050565b6000602082840312156101bc57600080fd5b81356001600160e01b0319811681146101a357600080fd5b604051610120810167ffffffffffffffff8111828210171561020657634e487b7160e01b600052604160045260246000fd5b60405290565b803565ffffffffffff8116811461022257600080fd5b919050565b803563ffffffff8116811461022257600080fd5b80356dffffffffffffffffffffffffffff8116811461022257600080fd5b80356001600160a01b038116811461022257600080fd5b60008082840361014081121561028557600080fd5b8335925061012080601f198301121561029d57600080fd5b6102a56101d4565b91506102b36020860161020c565b82526102c16040860161020c565b60208301526102d26060860161020c565b60408301526102e36080860161020c565b60608301526102f460a08601610227565b608083015261030560c0860161023b565b60a083015261031660e08601610227565b60c0830152610100610329818701610259565b60e0840152940135938101939093525092909150565b602081016006831061036157634e487b7160e01b600052602160045260246000fd5b9190529056fea2646970667358221220b8cda0ac29e1354b2c6e093d0dcd4ca650a90d1bec429a7090de9fcaf291b00864736f6c63430008170033",
	"gitCommit": "c2c88c170759f2e64fcae5ce98f887bcc4d85883",
	"history": []
}