{
	"format": "sphinx-sol-ct-artifact-1",
	"merkleRoot": "0xb1d0224668d6ed7c1798a5eacd6628ca2ca188c5fe9f6f6ea75394a2c15706f8",
	"address": "0x6292281d69c3593fcf6ea074e5797341476ab428",
	"sourceName": "src/JBRulesets.sol",
	"contractName": "JBRulesets",
	"chainId": "0x66eee",
	"abi": [
		{
			"inputs": [
				{
					"internalType": "contract IJBDirectory",
					"name": "directory",
					"type": "address"
				}
			],
			"stateMutability": "nonpayable",
			"type": "constructor"
		},
		{
			"inputs": [],
			"name": "DIRECTORY",
			"outputs": [
				{
					"internalType": "contract IJBDirectory",
					"name": "",
					"type": "address"
				}
			],
			"stateMutability": "view",
			"type": "function"
		},
		{
			"inputs": [
				{
					"internalType": "uint256",
					"name": "projectId",
					"type": "uint256"
				},
				{
					"internalType": "uint256",
					"name": "startingId",
					"type": "uint256"
				},
				{
					"internalType": "uint256",
					"name": "size",
					"type": "uint256"
				}
			],
			"name": "allOf",
			"outputs": [
				{
					"components": [
						{
							"internalType": "uint48",
							"name": "cycleNumber",
							"type": "uint48"
						},
						{
							"internalType": "uint48",
							"name": "id",
							"type": "uint48"
						},
						{
							"internalType": "uint48",
							"name": "basedOnId",
							"type": "uint48"
						},
						{
							"internalType": "uint48",
							"name": "start",
							"type": "uint48"
						},
						{
							"internalType": "uint32",
							"name": "duration",
							"type": "uint32"
						},
						{
							"internalType": "uint112",
							"name": "weight",
							"type": "uint112"
						},
						{
							"internalType": "uint32",
							"name": "weightCutPercent",
							"type": "uint32"
						},
						{
							"internalType": "contract IJBRulesetApprovalHook",
							"name": "approvalHook",
							"type": "address"
						},
						{
							"internalType": "uint256",
							"name": "metadata",
							"type": "uint256"
						}
					],
					"internalType": "struct JBRuleset[]",
					"name": "rulesets",
					"type": "tuple[]"
				}
			],
			"stateMutability": "view",
			"type": "function"
		},
		{
			"inputs": [
				{
					"internalType": "uint256",
					"name": "projectId",
					"type": "uint256"
				}
			],
			"name": "currentApprovalStatusForLatestRulesetOf",
			"outputs": [
				{
					"internalType": "enum JBApprovalStatus",
					"name": "",
					"type": "uint8"
				}
			],
			"stateMutability": "view",
			"type": "function"
		},
		{
			"inputs": [
				{
					"internalType": "uint256",
					"name": "projectId",
					"type": "uint256"
				}
			],
			"name": "currentOf",
			"outputs": [
				{
					"components": [
						{
							"internalType": "uint48",
							"name": "cycleNumber",
							"type": "uint48"
						},
						{
							"internalType": "uint48",
							"name": "id",
							"type": "uint48"
						},
						{
							"internalType": "uint48",
							"name": "basedOnId",
							"type": "uint48"
						},
						{
							"internalType": "uint48",
							"name": "start",
							"type": "uint48"
						},
						{
							"internalType": "uint32",
							"name": "duration",
							"type": "uint32"
						},
						{
							"internalType": "uint112",
							"name": "weight",
							"type": "uint112"
						},
						{
							"internalType": "uint32",
							"name": "weightCutPercent",
							"type": "uint32"
						},
						{
							"internalType": "contract IJBRulesetApprovalHook",
							"name": "approvalHook",
							"type": "address"
						},
						{
							"internalType": "uint256",
							"name": "metadata",
							"type": "uint256"
						}
					],
					"internalType": "struct JBRuleset",
					"name": "ruleset",
					"type": "tuple"
				}
			],
			"stateMutability": "view",
			"type": "function"
		},
		{
			"inputs": [
				{
					"internalType": "uint256",
					"name": "baseRulesetCycleNumber",
					"type": "uint256"
				},
				{
					"internalType": "uint256",
					"name": "baseRulesetStart",
					"type": "uint256"
				},
				{
					"internalType": "uint256",
					"name": "baseRulesetDuration",
					"type": "uint256"
				},
				{
					"internalType": "uint256",
					"name": "start",
					"type": "uint256"
				}
			],
			"name": "deriveCycleNumberFrom",
			"outputs": [
				{
					"internalType": "uint256",
					"name": "",
					"type": "uint256"
				}
			],
			"stateMutability": "pure",
			"type": "function"
		},
		{
			"inputs": [
				{
					"internalType": "uint256",
					"name": "baseRulesetStart",
					"type": "uint256"
				},
				{
					"internalType": "uint256",
					"name": "baseRulesetDuration",
					"type": "uint256"
				},
				{
					"internalType": "uint256",
					"name": "mustStartAtOrAfter",
					"type": "uint256"
				}
			],
			"name": "deriveStartFrom",
			"outputs": [
				{
					"internalType": "uint256",
					"name": "start",
					"type": "uint256"
				}
			],
			"stateMutability": "pure",
			"type": "function"
		},
		{
			"inputs": [
				{
					"internalType": "uint256",
					"name": "projectId",
					"type": "uint256"
				},
				{
					"internalType": "uint256",
					"name": "baseRulesetStart",
					"type": "uint256"
				},
				{
					"internalType": "uint256",
					"name": "baseRulesetDuration",
					"type": "uint256"
				},
				{
					"internalType": "uint256",
					"name": "baseRulesetWeight",
					"type": "uint256"
				},
				{
					"internalType": "uint256",
					"name": "baseRulesetWeightCutPercent",
					"type": "uint256"
				},
				{
					"internalType": "uint256",
					"name": "baseRulesetCacheId",
					"type": "uint256"
				},
				{
					"internalType": "uint256",
					"name": "start",
					"type": "uint256"
				}
			],
			"name": "deriveWeightFrom",
			"outputs": [
				{
					"internalType": "uint256",
					"name": "weight",
					"type": "uint256"
				}
			],
			"stateMutability": "view",
			"type": "function"
		},
		{
			"inputs": [
				{
					"internalType": "uint256",
					"name": "projectId",
					"type": "uint256"
				},
				{
					"internalType": "uint256",
					"name": "rulesetId",
					"type": "uint256"
				}
			],
			"name": "getRulesetOf",
			"outputs": [
				{
					"components": [
						{
							"internalType": "uint48",
							"name": "cycleNumber",
							"type": "uint48"
						},
						{
							"internalType": "uint48",
							"name": "id",
							"type": "uint48"
						},
						{
							"internalType": "uint48",
							"name": "basedOnId",
							"type": "uint48"
						},
						{
							"internalType": "uint48",
							"name": "start",
							"type": "uint48"
						},
						{
							"internalType": "uint32",
							"name": "duration",
							"type": "uint32"
						},
						{
							"internalType": "uint112",
							"name": "weight",
							"type": "uint112"
						},
						{
							"internalType": "uint32",
							"name": "weightCutPercent",
							"type": "uint32"
						},
						{
							"internalType": "contract IJBRulesetApprovalHook",
							"name": "approvalHook",
							"type": "address"
						},
						{
							"internalType": "uint256",
							"name": "metadata",
							"type": "uint256"
						}
					],
					"internalType": "struct JBRuleset",
					"name": "ruleset",
					"type": "tuple"
				}
			],
			"stateMutability": "view",
			"type": "function"
		},
		{
			"inputs": [
				{
					"internalType": "uint256",
					"name": "projectId",
					"type": "uint256"
				}
			],
			"name": "latestQueuedOf",
			"outputs": [
				{
					"components": [
						{
							"internalType": "uint48",
							"name": "cycleNumber",
							"type": "uint48"
						},
						{
							"internalType": "uint48",
							"name": "id",
							"type": "uint48"
						},
						{
							"internalType": "uint48",
							"name": "basedOnId",
							"type": "uint48"
						},
						{
							"internalType": "uint48",
							"name": "start",
							"type": "uint48"
						},
						{
							"internalType": "uint32",
							"name": "duration",
							"type": "uint32"
						},
						{
							"internalType": "uint112",
							"name": "weight",
							"type": "uint112"
						},
						{
							"internalType": "uint32",
							"name": "weightCutPercent",
							"type": "uint32"
						},
						{
							"internalType": "contract IJBRulesetApprovalHook",
							"name": "approvalHook",
							"type": "address"
						},
						{
							"internalType": "uint256",
							"name": "metadata",
							"type": "uint256"
						}
					],
					"internalType": "struct JBRuleset",
					"name": "ruleset",
					"type": "tuple"
				},
				{
					"internalType": "enum JBApprovalStatus",
					"name": "approvalStatus",
					"type": "uint8"
				}
			],
			"stateMutability": "view",
			"type": "function"
		},
		{
			"inputs": [
				{
					"internalType": "uint256",
					"name": "projectId",
					"type": "uint256"
				}
			],
			"name": "latestRulesetIdOf",
			"outputs": [
				{
					"internalType": "uint256",
					"name": "",
					"type": "uint256"
				}
			],
			"stateMutability": "view",
			"type": "function"
		},
		{
			"inputs": [
				{
					"internalType": "uint256",
					"name": "projectId",
					"type": "uint256"
				},
				{
					"internalType": "uint256",
					"name": "duration",
					"type": "uint256"
				},
				{
					"internalType": "uint256",
					"name": "weight",
					"type": "uint256"
				},
				{
					"internalType": "uint256",
					"name": "weightCutPercent",
					"type": "uint256"
				},
				{
					"internalType": "contract IJBRulesetApprovalHook",
					"name": "approvalHook",
					"type": "address"
				},
				{
					"internalType": "uint256",
					"name": "metadata",
					"type": "uint256"
				},
				{
					"internalType": "uint256",
					"name": "mustStartAtOrAfter",
					"type": "uint256"
				}
			],
			"name": "queueFor",
			"outputs": [
				{
					"components": [
						{
							"internalType": "uint48",
							"name": "cycleNumber",
							"type": "uint48"
						},
						{
							"internalType": "uint48",
							"name": "id",
							"type": "uint48"
						},
						{
							"internalType": "uint48",
							"name": "basedOnId",
							"type": "uint48"
						},
						{
							"internalType": "uint48",
							"name": "start",
							"type": "uint48"
						},
						{
							"internalType": "uint32",
							"name": "duration",
							"type": "uint32"
						},
						{
							"internalType": "uint112",
							"name": "weight",
							"type": "uint112"
						},
						{
							"internalType": "uint32",
							"name": "weightCutPercent",
							"type": "uint32"
						},
						{
							"internalType": "contract IJBRulesetApprovalHook",
							"name": "approvalHook",
							"type": "address"
						},
						{
							"internalType": "uint256",
							"name": "metadata",
							"type": "uint256"
						}
					],
					"internalType": "struct JBRuleset",
					"name": "",
					"type": "tuple"
				}
			],
			"stateMutability": "nonpayable",
			"type": "function"
		},
		{
			"inputs": [
				{
					"internalType": "uint256",
					"name": "projectId",
					"type": "uint256"
				}
			],
			"name": "upcomingOf",
			"outputs": [
				{
					"components": [
						{
							"internalType": "uint48",
							"name": "cycleNumber",
							"type": "uint48"
						},
						{
							"internalType": "uint48",
							"name": "id",
							"type": "uint48"
						},
						{
							"internalType": "uint48",
							"name": "basedOnId",
							"type": "uint48"
						},
						{
							"internalType": "uint48",
							"name": "start",
							"type": "uint48"
						},
						{
							"internalType": "uint32",
							"name": "duration",
							"type": "uint32"
						},
						{
							"internalType": "uint112",
							"name": "weight",
							"type": "uint112"
						},
						{
							"internalType": "uint32",
							"name": "weightCutPercent",
							"type": "uint32"
						},
						{
							"internalType": "contract IJBRulesetApprovalHook",
							"name": "approvalHook",
							"type": "address"
						},
						{
							"internalType": "uint256",
							"name": "metadata",
							"type": "uint256"
						}
					],
					"internalType": "struct JBRuleset",
					"name": "ruleset",
					"type": "tuple"
				}
			],
			"stateMutability": "view",
			"type": "function"
		},
		{
			"inputs": [
				{
					"internalType": "uint256",
					"name": "projectId",
					"type": "uint256"
				}
			],
			"name": "updateRulesetWeightCache",
			"outputs": [],
			"stateMutability": "nonpayable",
			"type": "function"
		},
		{
			"anonymous": false,
			"inputs": [
				{
					"indexed": true,
					"internalType": "uint256",
					"name": "rulesetId",
					"type": "uint256"
				},
				{
					"indexed": true,
					"internalType": "uint256",
					"name": "projectId",
					"type": "uint256"
				},
				{
					"indexed": true,
					"internalType": "uint256",
					"name": "basedOnId",
					"type": "uint256"
				},
				{
					"indexed": false,
					"internalType": "address",
					"name": "caller",
					"type": "address"
				}
			],
			"name": "RulesetInitialized",
			"type": "event"
		},
		{
			"anonymous": false,
			"inputs": [
				{
					"indexed": true,
					"internalType": "uint256",
					"name": "rulesetId",
					"type": "uint256"
				},
				{
					"indexed": true,
					"internalType": "uint256",
					"name": "projectId",
					"type": "uint256"
				},
				{
					"indexed": false,
					"internalType": "uint256",
					"name": "duration",
					"type": "uint256"
				},
				{
					"indexed": false,
					"internalType": "uint256",
					"name": "weight",
					"type": "uint256"
				},
				{
					"indexed": false,
					"internalType": "uint256",
					"name": "weightCutPercent",
					"type": "uint256"
				},
				{
					"indexed": false,
					"internalType": "contract IJBRulesetApprovalHook",
					"name": "approvalHook",
					"type": "address"
				},
				{
					"indexed": false,
					"internalType": "uint256",
					"name": "metadata",
					"type": "uint256"
				},
				{
					"indexed": false,
					"internalType": "uint256",
					"name": "mustStartAtOrAfter",
					"type": "uint256"
				},
				{
					"indexed": false,
					"internalType": "address",
					"name": "caller",
					"type": "address"
				}
			],
			"name": "RulesetQueued",
			"type": "event"
		},
		{
			"anonymous": false,
			"inputs": [
				{
					"indexed": false,
					"internalType": "uint256",
					"name": "projectId",
					"type": "uint256"
				},
				{
					"indexed": false,
					"internalType": "uint112",
					"name": "weight",
					"type": "uint112"
				},
				{
					"indexed": false,
					"internalType": "uint256",
					"name": "weightCutMultiple",
					"type": "uint256"
				},
				{
					"indexed": false,
					"internalType": "address",
					"name": "caller",
					"type": "address"
				}
			],
			"name": "WeightCacheUpdated",
			"type": "event"
		},
		{
			"inputs": [
				{
					"internalType": "address",
					"name": "controller",
					"type": "address"
				}
			],
			"name": "JBControlled_ControllerUnauthorized",
			"type": "error"
		},
		{
			"inputs": [
				{
					"internalType": "contract IJBRulesetApprovalHook",
					"name": "hook",
					"type": "address"
				}
			],
			"name": "JBRulesets_InvalidRulesetApprovalHook",
			"type": "error"
		},
		{
			"inputs": [
				{
					"internalType": "uint256",
					"name": "duration",
					"type": "uint256"
				},
				{
					"internalType": "uint256",
					"name": "limit",
					"type": "uint256"
				}
			],
			"name": "JBRulesets_InvalidRulesetDuration",
			"type": "error"
		},
		{
			"inputs": [
				{
					"internalType": "uint256",
					"name": "timestamp",
					"type": "uint256"
				},
				{
					"internalType": "uint256",
					"name": "limit",
					"type": "uint256"
				}
			],
			"name": "JBRulesets_InvalidRulesetEndTime",
			"type": "error"
		},
		{
			"inputs": [
				{
					"internalType": "uint256",
					"name": "weight",
					"type": "uint256"
				},
				{
					"internalType": "uint256",
					"name": "limit",
					"type": "uint256"
				}
			],
			"name": "JBRulesets_InvalidWeight",
			"type": "error"
		},
		{
			"inputs": [
				{
					"internalType": "uint256",
					"name": "percent",
					"type": "uint256"
				}
			],
			"name": "JBRulesets_InvalidWeightCutPercent",
			"type": "error"
		},
		{
			"inputs": [
				{
					"internalType": "uint256",
					"name": "x",
					"type": "uint256"
				},
				{
					"internalType": "uint256",
					"name": "y",
					"type": "uint256"
				},
				{
					"internalType": "uint256",
					"name": "denominator",
					"type": "uint256"
				}
			],
			"name": "PRBMath_MulDiv_Overflow",
			"type": "error"
		}
	],
	"args": [],
	"solcInputHash": "51e2de1557bafeed0f574c9089293121",
	"bytecode": "0x60a060405234801561001057600080fd5b50604051611eda380380611eda83398101604081905261002f91610040565b6001600160a01b0316608052610070565b60006020828403121561005257600080fd5b81516001600160a01b038116811461006957600080fd5b9392505050565b608051611e41610099600039600081816101ac0152818161140c015261149b0152611e416000f3fe608060405234801561001057600080fd5b50600436106100cf5760003560e01c806370174dcc1161008c5780638b04533a116100665780638b04533a146101e6578063bfc48c9e146101fb578063d7e1ec881461020e578063fe81dd801461022e57600080fd5b806370174dcc14610173578063855a54ed1461018657806388bc2ef3146101a757600080fd5b80631b9b2e5f146100d457806325a61d5c146100fa5780632e6bc58a1461011a57806333f5bd0a1461012d57806343a266c21461014d578063441c0cc514610160575b600080fd5b6100e76100e2366004611996565b61024e565b6040519081526020015b60405180910390f35b61010d6101083660046119c8565b610298565b6040516100f19190611a9c565b61010d610128366004611aab565b6102b3565b6100e761013b366004611aab565b60006020819052908152604090205481565b61010d61015b366004611aab565b610478565b6100e761016e366004611ac4565b6105fe565b61010d610181366004611b25565b61071a565b610199610194366004611aab565b610a4c565b6040516100f1929190611bbc565b6101ce7f000000000000000000000000000000000000000000000000000000000000000081565b6040516001600160a01b0390911681526020016100f1565b6101f96101f4366004611aab565b610a81565b005b6100e7610209366004611bd9565b610c61565b61022161021c366004611aab565b610cd6565b6040516100f19190611c05565b61024161023c366004611bd9565b610cfc565b6040516100f19190611c13565b60008260000361026a57610263856001611c78565b9050610290565b60006102768584611c8b565b90506102828482611cb4565b61028c9087611c78565b9150505b949350505050565b6102a061194a565b6102aa8383610e44565b90505b92915050565b6102bb61194a565b60008281526020819052604081205490036102db576102ad600080610e44565b60006102e683610f07565b90506000811561037e576102fa8483610e44565b9250610306848461100d565b9050600481600581111561031c5761031c611b84565b14806103395750600381600581111561033757610337611b84565b145b806103555750600081600581111561035357610353611b84565b145b15610361575050919050565b61037784846040015165ffffffffffff16610e44565b92506103cc565b600084815260208190526040902054610398908590610e44565b92505b42836060015165ffffffffffff1611156103cc576103c584846040015165ffffffffffff16610e44565b925061039b565b826080015163ffffffff166000036103e957610290600080610e44565b6103f3848461100d565b9050600481600581111561040957610409611b84565b14806104265750600081600581111561042457610424611b84565b145b1561043757610290848460006110d5565b61044d84846040015165ffffffffffff16610e44565b9250826080015163ffffffff1660000361046c57610290600080610e44565b610290848460006110d5565b61048061194a565b60008281526020819052604081205490036104a0576102ad600080610e44565b60006104ab83611258565b9050801561052b576104bd8382610e44565b915060006104cb848461100d565b905060048160058111156104e1576104e1611b84565b14806104fe575060008160058111156104fc576104fc611b84565b145b1561050a575050919050565b826040015165ffffffffffff1691506105238483610e44565b9250506105d3565b506000828152602081905260409020546105458382610e44565b91506000610553848461100d565b90505b600481600581111561056a5761056a611b84565b1415801561058a5750600081600581111561058757610587611b84565b14155b806105a05750826060015165ffffffffffff1642105b156105d157826040015165ffffffffffff1691506105be8483610e44565b92506105ca848461100d565b9050610556565b505b816080015163ffffffff166000036105eb5750919050565b6105f7838360016110d5565b9392505050565b60008560000361062b576106248561061a86633b9aca00611c8b565b633b9aca00611318565b905061070f565b5083831561070f57600061063f8884611c8b565b9050600087828161065257610652611c9e565b04905060008511801561066657506103e881115b156106de5760008a8152600460209081526040808320888452825291829020825180840190935280546001600160701b03168352600101546001600160a81b0316908201819052156106dc57805160208201516001600160701b0390911694506106d9906001600160a81b031683611c8b565b91505b505b60005b8181101561070b576106fb8461061a89633b9aca00611c8b565b9350831561070b576001016106e1565b5050505b979650505050505050565b61072261194a565b8761072c816113ec565b63ffffffff88111561076357604051638444f64b60e01b81526004810189905263ffffffff60248201526044015b60405180910390fd5b633b9aca0086111561078b576040516321e5c74960e21b81526004810187905260240161075a565b6001600160701b038711156107c357604051632dd7f24160e01b8152600481018890526001600160701b03602482015260440161075a565b826000036107cf574292505b65ffffffffffff6107e08985611c78565b1115610819576107f08884611c78565b604051632ce261d560e21b8152600481019190915265ffffffffffff602482015260440161075a565b6001600160a01b0385161561091857846001600160a01b03163b60000361085e5760405163045b9cdd60e31b81526001600160a01b038616600482015260240161075a565b6040516301ffc9a760e01b8152630c0dbbf160e21b60048201526001600160a01b038616906301ffc9a790602401602060405180830381865afa9250505080156108c5575060408051601f3d908101601f191682019092526108c291810190611cc8565b60015b6108ed5760405163045b9cdd60e31b81526001600160a01b038616600482015260240161075a565b806109165760405163045b9cdd60e31b81526001600160a01b038716600482015260240161075a565b505b60008981526020819052604081205490428210156109365742610941565b610941826001611c78565b905061094f8b828b88611536565b6001600160a01b038716151580610966575060008a115b806109715750600088115b156109a85760008b8152600360209081526040808320848452909152902060c089901b60a08c901b6001600160a01b038a16171790555b85156109cb5760008b815260016020908152604080832084845290915290208690555b604080518b8152602081018b90529081018990526001600160a01b03881660608201526080810187905260a081018690523360c08201528b9082907f11a490bebff1beffe4bdd210894aca6ea5049427ce4b3c48865717677199cb079060e00160405180910390a3610a3d8b82610e44565b9b9a5050505050505050505050565b610a5461194a565b600082815260208190526040812054610a6d8482610e44565b9250610a79848461100d565b915050915091565b600081815260208190526040812054610a9b908390610e44565b9050806080015163ffffffff1660001480610abe575060c081015163ffffffff16155b15610ac7575050565b60008281526004602090815260408083208483015165ffffffffffff16845290915281206080830151600182015491929163ffffffff90911690610b179061c350906001600160a81b0316611c78565b610b219190611cea565b836060015165ffffffffffff16610b389190611c78565b90506000814210610b495781610b4b565b425b90506000846060015165ffffffffffff1682610b679190611c8b565b90506000856080015163ffffffff168281610b8457610b84611c9e565b049050610bcf87876060015165ffffffffffff16886080015163ffffffff168960a001516001600160701b03168a60c0015163ffffffff168b6020015165ffffffffffff16896105fe565b85546dffffffffffffffffffffffffffff19166001600160701b039190911690811786556001860180546001600160a81b0319166001600160a81b038416908117909155604080518a815260208101939093528201523360608201527f10eae80a31644a6399eaac72c95b18a77049f4192107734621f4cdce85b457729060800160405180910390a150505050505050565b600082600003610c725750806105f7565b6000610c7e8486611c78565b9050828110610c8e5790506105f7565b600084610c9b8386611c8b565b610ca59190611d01565b9050610cb18185611c8b565b92505b82841115610ccd57610cc68584611c78565b9250610cb4565b50509392505050565b60008181526020819052604081205481610cf08483610e44565b9050610290848261100d565b606082600003610d185760008481526020819052604090205492505b600080610d258686610e44565b90505b602081015165ffffffffffff1615801590610d4257508382105b15610d715781610d5181611d15565b925050610d6a86826040015165ffffffffffff16610e44565b9050610d28565b8167ffffffffffffffff811115610d8a57610d8a611d2e565b604051908082528060200260200182016040528015610dc357816020015b610db061194a565b815260200190600190039081610da85790505b50925081600003610dd55750506105f7565b610ddf8686610e44565b905060005b82811015610e3a57818482610df881611d15565b935081518110610e0a57610e0a611d44565b6020026020010181905250828114610e3557610e3287836040015165ffffffffffff16610e44565b91505b610de4565b5050509392505050565b610e4c61194a565b81156102ad5765ffffffffffff82811660208381019190915260008581526002825260408082208683528352808220546001600160701b03811660a080880191909152607082901c86168388015281811c909516606087015260d01c8552868252600383528082208683528352808220546001600160a01b03811660e08701529384901c63ffffffff908116608087015260c094851c1693850193909352948552600181528185209385529290925291205461010082015290565b60008181526020819052604081205490610f218383610e44565b9050806060015165ffffffffffff164210610f3f5750600092915050565b805165ffffffffffff16600103610f565750919050565b604081015165ffffffffffff16610f6b61194a565b610f758583610e44565b9050806060015165ffffffffffff16421015610fae57806020015165ffffffffffff169350806040015165ffffffffffff169150610f6b565b610fb88585610e44565b9250806080015163ffffffff16600014158015610ff55750806080015163ffffffff168360600151610fea9190611d5a565b65ffffffffffff1642105b1561100557506000949350505050565b505050919050565b6000816040015165ffffffffffff1660000361102b575060006102ad565b600061104384846040015165ffffffffffff16610e44565b60e08101519091506001600160a01b03166110625760009150506102ad565b8060e001516001600160a01b0316632bd6bd4d85856040518363ffffffff1660e01b8152600401611094929190611d80565b602060405180830381865afa1580156110b1573d6000803e3d6000fd5b505050506040513d601f19601f820116820180604052508101906102909190611d95565b6110dd61194a565b6000821561110a5760808401516110fa9063ffffffff1642611c8b565b611105906001611c78565b611115565b611115426001611c78565b9050600061113a856060015165ffffffffffff16866080015163ffffffff1684610c61565b9050600061116c866000015165ffffffffffff16876060015165ffffffffffff16886080015163ffffffff168561024e565b90506040518061012001604052808265ffffffffffff168152602001876020015165ffffffffffff168152602001876040015165ffffffffffff1681526020018365ffffffffffff168152602001876080015163ffffffff16815260200161121289896060015165ffffffffffff168a6080015163ffffffff168b60a001516001600160701b03168c60c0015163ffffffff168d6020015165ffffffffffff168a6105fe565b6001600160701b031681526020018760c0015163ffffffff1681526020018760e001516001600160a01b0316815260200187610100015181525093505050509392505050565b600081815260208190526040812054816112728483610e44565b90505b608081015163ffffffff16158015906112af5750806080015163ffffffff1681606001516112a39190611db6565b65ffffffffffff164210155b156112be575060009392505050565b806060015165ffffffffffff1642106112e4576020015165ffffffffffff169392505050565b6112fa84826040015165ffffffffffff16610e44565b805190915065ffffffffffff16600003611275575060009392505050565b60008080600019858709858702925082811083820303915050806000036113525783828161134857611348611c9e565b04925050506105f7565b83811061138357604051630c740aef60e31b815260048101879052602481018690526044810185905260640161075a565b60008486880960026001871981018816978890046003810283188082028403028082028403028082028403028082028403028082028403029081029092039091026000889003889004909101858311909403939093029303949094049190911702949350505050565b604051632eec7b5560e11b81526004810182905233906001600160a01b037f00000000000000000000000000000000000000000000000000000000000000001690635dd8f6aa90602401602060405180830381865afa158015611453573d6000803e3d6000fd5b505050506040513d601f19601f820116820180604052508101906114779190611dd5565b6001600160a01b03161461153357604051632eec7b5560e11b8152600481018290527f00000000000000000000000000000000000000000000000000000000000000006001600160a01b031690635dd8f6aa90602401602060405180830381865afa1580156114ea573d6000803e3d6000fd5b505050506040513d601f19601f8201168201806040525081019061150e9190611dd5565b604051639a007b3960e01b81526001600160a01b03909116600482015260240161075a565b50565b6000848152602081905260408120549081900361156a576115648561155c600080610e44565b8685876117a1565b5061179b565b60006115768683610e44565b90506000611584878361100d565b9050816060015165ffffffffffff1642101580156115b4575060048160058111156115b1576115b1611b84565b14155b80156115d2575060008160058111156115cf576115cf611b84565b14155b806116315750816060015165ffffffffffff16421080156116135750816080015163ffffffff1682606001516116089190611db6565b65ffffffffffff1684105b80156116315750600481600581111561162e5761162e611b84565b14155b806116cd5750816060015165ffffffffffff16421080156116735750816080015163ffffffff1682606001516116679190611db6565b65ffffffffffff168410155b80156116915750600481600581111561168e5761168e611b84565b14155b80156116af575060038160058111156116ac576116ac611b84565b14155b80156116cd575060008160058111156116ca576116ca611b84565b14155b156116eb576116e887836040015165ffffffffffff16610e44565b91505b60e08201516000906001600160a01b031615611776578260e001516001600160a01b0316631be052896040518163ffffffff1660e01b8152600401602060405180830381865afa158015611743573d6000803e3d6000fd5b505050506040513d601f19601f820116820180604052508101906117679190611df2565b6117719088611c78565b611779565b60005b905061179688848988851161178e5788611790565b845b8a6117a1565b505050505b50505050565b835165ffffffffffff166000036117f95760208085015160008781526002835260408082208783529093529190912065ffffffffffff60701b60709290921b91909116821760a084901b17600160d01b1790556118ed565b600061181c856060015165ffffffffffff16866080015163ffffffff1685610c61565b90508160011461182c5781611874565b61187486866060015165ffffffffffff16876080015163ffffffff168860a001516001600160701b03168960c0015163ffffffff168a6020015165ffffffffffff16876105fe565b915060006118a6866000015165ffffffffffff16876060015165ffffffffffff16886080015163ffffffff168561024e565b60208088015160008a81526002835260408082208a83529093529190912065ffffffffffff60701b60709290921b91909116851760a085901b1760d083901b179055905050505b6000858152602081815260409182902085905585810151915133815265ffffffffffff90921691879186917f470520533918800d64f06ee1795a39e90ff3c27a15350a235e17bd23698a470e910160405180910390a45050505050565b6040805161012081018252600080825260208201819052918101829052606081018290526080810182905260a0810182905260c0810182905260e0810182905261010081019190915290565b600080600080608085870312156119ac57600080fd5b5050823594602084013594506040840135936060013592509050565b600080604083850312156119db57600080fd5b50508035926020909101359150565b65ffffffffffff808251168352806020830151166020840152806040830151166040840152506060810151611a29606084018265ffffffffffff169052565b506080810151611a41608084018263ffffffff169052565b5060a0810151611a5c60a08401826001600160701b03169052565b5060c0810151611a7460c084018263ffffffff169052565b5060e0810151611a8f60e08401826001600160a01b03169052565b5061010090810151910152565b61012081016102ad82846119ea565b600060208284031215611abd57600080fd5b5035919050565b600080600080600080600060e0888a031215611adf57600080fd5b505085359760208701359750604087013596606081013596506080810135955060a0810135945060c0013592509050565b6001600160a01b038116811461153357600080fd5b600080600080600080600060e0888a031215611b4057600080fd5b873596506020880135955060408801359450606088013593506080880135611b6781611b10565b9699959850939692959460a0840135945060c09093013592915050565b634e487b7160e01b600052602160045260246000fd5b60068110611bb857634e487b7160e01b600052602160045260246000fd5b9052565b6101408101611bcb82856119ea565b6105f7610120830184611b9a565b600080600060608486031215611bee57600080fd5b505081359360208301359350604090920135919050565b602081016102ad8284611b9a565b6020808252825182820181905260009190848201906040850190845b81811015611c5657611c428385516119ea565b928401926101209290920191600101611c2f565b50909695505050505050565b634e487b7160e01b600052601160045260246000fd5b808201808211156102ad576102ad611c62565b818103818111156102ad576102ad611c62565b634e487b7160e01b600052601260045260246000fd5b600082611cc357611cc3611c9e565b500490565b600060208284031215611cda57600080fd5b815180151581146105f757600080fd5b80820281158282048414176102ad576102ad611c62565b600082611d1057611d10611c9e565b500690565b600060018201611d2757611d27611c62565b5060010190565b634e487b7160e01b600052604160045260246000fd5b634e487b7160e01b600052603260045260246000fd5b65ffffffffffff828116828216039080821115611d7957611d79611c62565b5092915050565b82815261014081016105f760208301846119ea565b600060208284031215611da757600080fd5b8151600681106105f757600080fd5b65ffffffffffff818116838216019080821115611d7957611d79611c62565b600060208284031215611de757600080fd5b81516105f781611b10565b600060208284031215611e0457600080fd5b505191905056fea2646970667358221220de9828af8735016248a2dd640b2433d1684885bd0a63c41223ae0eedc348bd8e64736f6c63430008170033",
	"deployedBytecode": "0x608060405234801561001057600080fd5b50600436106100cf5760003560e01c806370174dcc1161008c5780638b04533a116100665780638b04533a146101e6578063bfc48c9e146101fb578063d7e1ec881461020e578063fe81dd801461022e57600080fd5b806370174dcc14610173578063855a54ed1461018657806388bc2ef3146101a757600080fd5b80631b9b2e5f146100d457806325a61d5c146100fa5780632e6bc58a1461011a57806333f5bd0a1461012d57806343a266c21461014d578063441c0cc514610160575b600080fd5b6100e76100e2366004611996565b61024e565b6040519081526020015b60405180910390f35b61010d6101083660046119c8565b610298565b6040516100f19190611a9c565b61010d610128366004611aab565b6102b3565b6100e761013b366004611aab565b60006020819052908152604090205481565b61010d61015b366004611aab565b610478565b6100e761016e366004611ac4565b6105fe565b61010d610181366004611b25565b61071a565b610199610194366004611aab565b610a4c565b6040516100f1929190611bbc565b6101ce7f0000000000000000000000000061e516886a0540f63157f112c0588ee0651dcf81565b6040516001600160a01b0390911681526020016100f1565b6101f96101f4366004611aab565b610a81565b005b6100e7610209366004611bd9565b610c61565b61022161021c366004611aab565b610cd6565b6040516100f19190611c05565b61024161023c366004611bd9565b610cfc565b6040516100f19190611c13565b60008260000361026a57610263856001611c78565b9050610290565b60006102768584611c8b565b90506102828482611cb4565b61028c9087611c78565b9150505b949350505050565b6102a061194a565b6102aa8383610e44565b90505b92915050565b6102bb61194a565b60008281526020819052604081205490036102db576102ad600080610e44565b60006102e683610f07565b90506000811561037e576102fa8483610e44565b9250610306848461100d565b9050600481600581111561031c5761031c611b84565b14806103395750600381600581111561033757610337611b84565b145b806103555750600081600581111561035357610353611b84565b145b15610361575050919050565b61037784846040015165ffffffffffff16610e44565b92506103cc565b600084815260208190526040902054610398908590610e44565b92505b42836060015165ffffffffffff1611156103cc576103c584846040015165ffffffffffff16610e44565b925061039b565b826080015163ffffffff166000036103e957610290600080610e44565b6103f3848461100d565b9050600481600581111561040957610409611b84565b14806104265750600081600581111561042457610424611b84565b145b1561043757610290848460006110d5565b61044d84846040015165ffffffffffff16610e44565b9250826080015163ffffffff1660000361046c57610290600080610e44565b610290848460006110d5565b61048061194a565b60008281526020819052604081205490036104a0576102ad600080610e44565b60006104ab83611258565b9050801561052b576104bd8382610e44565b915060006104cb848461100d565b905060048160058111156104e1576104e1611b84565b14806104fe575060008160058111156104fc576104fc611b84565b145b1561050a575050919050565b826040015165ffffffffffff1691506105238483610e44565b9250506105d3565b506000828152602081905260409020546105458382610e44565b91506000610553848461100d565b90505b600481600581111561056a5761056a611b84565b1415801561058a5750600081600581111561058757610587611b84565b14155b806105a05750826060015165ffffffffffff1642105b156105d157826040015165ffffffffffff1691506105be8483610e44565b92506105ca848461100d565b9050610556565b505b816080015163ffffffff166000036105eb5750919050565b6105f7838360016110d5565b9392505050565b60008560000361062b576106248561061a86633b9aca00611c8b565b633b9aca00611318565b905061070f565b5083831561070f57600061063f8884611c8b565b9050600087828161065257610652611c9e565b04905060008511801561066657506103e881115b156106de5760008a8152600460209081526040808320888452825291829020825180840190935280546001600160701b03168352600101546001600160a81b0316908201819052156106dc57805160208201516001600160701b0390911694506106d9906001600160a81b031683611c8b565b91505b505b60005b8181101561070b576106fb8461061a89633b9aca00611c8b565b9350831561070b576001016106e1565b5050505b979650505050505050565b61072261194a565b8761072c816113ec565b63ffffffff88111561076357604051638444f64b60e01b81526004810189905263ffffffff60248201526044015b60405180910390fd5b633b9aca0086111561078b576040516321e5c74960e21b81526004810187905260240161075a565b6001600160701b038711156107c357604051632dd7f24160e01b8152600481018890526001600160701b03602482015260440161075a565b826000036107cf574292505b65ffffffffffff6107e08985611c78565b1115610819576107f08884611c78565b604051632ce261d560e21b8152600481019190915265ffffffffffff602482015260440161075a565b6001600160a01b0385161561091857846001600160a01b03163b60000361085e5760405163045b9cdd60e31b81526001600160a01b038616600482015260240161075a565b6040516301ffc9a760e01b8152630c0dbbf160e21b60048201526001600160a01b038616906301ffc9a790602401602060405180830381865afa9250505080156108c5575060408051601f3d908101601f191682019092526108c291810190611cc8565b60015b6108ed5760405163045b9cdd60e31b81526001600160a01b038616600482015260240161075a565b806109165760405163045b9cdd60e31b81526001600160a01b038716600482015260240161075a565b505b60008981526020819052604081205490428210156109365742610941565b610941826001611c78565b905061094f8b828b88611536565b6001600160a01b038716151580610966575060008a115b806109715750600088115b156109a85760008b8152600360209081526040808320848452909152902060c089901b60a08c901b6001600160a01b038a16171790555b85156109cb5760008b815260016020908152604080832084845290915290208690555b604080518b8152602081018b90529081018990526001600160a01b03881660608201526080810187905260a081018690523360c08201528b9082907f11a490bebff1beffe4bdd210894aca6ea5049427ce4b3c48865717677199cb079060e00160405180910390a3610a3d8b82610e44565b9b9a5050505050505050505050565b610a5461194a565b600082815260208190526040812054610a6d8482610e44565b9250610a79848461100d565b915050915091565b600081815260208190526040812054610a9b908390610e44565b9050806080015163ffffffff1660001480610abe575060c081015163ffffffff16155b15610ac7575050565b60008281526004602090815260408083208483015165ffffffffffff16845290915281206080830151600182015491929163ffffffff90911690610b179061c350906001600160a81b0316611c78565b610b219190611cea565b836060015165ffffffffffff16610b389190611c78565b90506000814210610b495781610b4b565b425b90506000846060015165ffffffffffff1682610b679190611c8b565b90506000856080015163ffffffff168281610b8457610b84611c9e565b049050610bcf87876060015165ffffffffffff16886080015163ffffffff168960a001516001600160701b03168a60c0015163ffffffff168b6020015165ffffffffffff16896105fe565b85546dffffffffffffffffffffffffffff19166001600160701b039190911690811786556001860180546001600160a81b0319166001600160a81b038416908117909155604080518a815260208101939093528201523360608201527f10eae80a31644a6399eaac72c95b18a77049f4192107734621f4cdce85b457729060800160405180910390a150505050505050565b600082600003610c725750806105f7565b6000610c7e8486611c78565b9050828110610c8e5790506105f7565b600084610c9b8386611c8b565b610ca59190611d01565b9050610cb18185611c8b565b92505b82841115610ccd57610cc68584611c78565b9250610cb4565b50509392505050565b60008181526020819052604081205481610cf08483610e44565b9050610290848261100d565b606082600003610d185760008481526020819052604090205492505b600080610d258686610e44565b90505b602081015165ffffffffffff1615801590610d4257508382105b15610d715781610d5181611d15565b925050610d6a86826040015165ffffffffffff16610e44565b9050610d28565b8167ffffffffffffffff811115610d8a57610d8a611d2e565b604051908082528060200260200182016040528015610dc357816020015b610db061194a565b815260200190600190039081610da85790505b50925081600003610dd55750506105f7565b610ddf8686610e44565b905060005b82811015610e3a57818482610df881611d15565b935081518110610e0a57610e0a611d44565b6020026020010181905250828114610e3557610e3287836040015165ffffffffffff16610e44565b91505b610de4565b5050509392505050565b610e4c61194a565b81156102ad5765ffffffffffff82811660208381019190915260008581526002825260408082208683528352808220546001600160701b03811660a080880191909152607082901c86168388015281811c909516606087015260d01c8552868252600383528082208683528352808220546001600160a01b03811660e08701529384901c63ffffffff908116608087015260c094851c1693850193909352948552600181528185209385529290925291205461010082015290565b60008181526020819052604081205490610f218383610e44565b9050806060015165ffffffffffff164210610f3f5750600092915050565b805165ffffffffffff16600103610f565750919050565b604081015165ffffffffffff16610f6b61194a565b610f758583610e44565b9050806060015165ffffffffffff16421015610fae57806020015165ffffffffffff169350806040015165ffffffffffff169150610f6b565b610fb88585610e44565b9250806080015163ffffffff16600014158015610ff55750806080015163ffffffff168360600151610fea9190611d5a565b65ffffffffffff1642105b1561100557506000949350505050565b505050919050565b6000816040015165ffffffffffff1660000361102b575060006102ad565b600061104384846040015165ffffffffffff16610e44565b60e08101519091506001600160a01b03166110625760009150506102ad565b8060e001516001600160a01b0316632bd6bd4d85856040518363ffffffff1660e01b8152600401611094929190611d80565b602060405180830381865afa1580156110b1573d6000803e3d6000fd5b505050506040513d601f19601f820116820180604052508101906102909190611d95565b6110dd61194a565b6000821561110a5760808401516110fa9063ffffffff1642611c8b565b611105906001611c78565b611115565b611115426001611c78565b9050600061113a856060015165ffffffffffff16866080015163ffffffff1684610c61565b9050600061116c866000015165ffffffffffff16876060015165ffffffffffff16886080015163ffffffff168561024e565b90506040518061012001604052808265ffffffffffff168152602001876020015165ffffffffffff168152602001876040015165ffffffffffff1681526020018365ffffffffffff168152602001876080015163ffffffff16815260200161121289896060015165ffffffffffff168a6080015163ffffffff168b60a001516001600160701b03168c60c0015163ffffffff168d6020015165ffffffffffff168a6105fe565b6001600160701b031681526020018760c0015163ffffffff1681526020018760e001516001600160a01b0316815260200187610100015181525093505050509392505050565b600081815260208190526040812054816112728483610e44565b90505b608081015163ffffffff16158015906112af5750806080015163ffffffff1681606001516112a39190611db6565b65ffffffffffff164210155b156112be575060009392505050565b806060015165ffffffffffff1642106112e4576020015165ffffffffffff169392505050565b6112fa84826040015165ffffffffffff16610e44565b805190915065ffffffffffff16600003611275575060009392505050565b60008080600019858709858702925082811083820303915050806000036113525783828161134857611348611c9e565b04925050506105f7565b83811061138357604051630c740aef60e31b815260048101879052602481018690526044810185905260640161075a565b60008486880960026001871981018816978890046003810283188082028403028082028403028082028403028082028403028082028403029081029092039091026000889003889004909101858311909403939093029303949094049190911702949350505050565b604051632eec7b5560e11b81526004810182905233906001600160a01b037f0000000000000000000000000061e516886a0540f63157f112c0588ee0651dcf1690635dd8f6aa90602401602060405180830381865afa158015611453573d6000803e3d6000fd5b505050506040513d601f19601f820116820180604052508101906114779190611dd5565b6001600160a01b03161461153357604051632eec7b5560e11b8152600481018290527f0000000000000000000000000061e516886a0540f63157f112c0588ee0651dcf6001600160a01b031690635dd8f6aa90602401602060405180830381865afa1580156114ea573d6000803e3d6000fd5b505050506040513d601f19601f8201168201806040525081019061150e9190611dd5565b604051639a007b3960e01b81526001600160a01b03909116600482015260240161075a565b50565b6000848152602081905260408120549081900361156a576115648561155c600080610e44565b8685876117a1565b5061179b565b60006115768683610e44565b90506000611584878361100d565b9050816060015165ffffffffffff1642101580156115b4575060048160058111156115b1576115b1611b84565b14155b80156115d2575060008160058111156115cf576115cf611b84565b14155b806116315750816060015165ffffffffffff16421080156116135750816080015163ffffffff1682606001516116089190611db6565b65ffffffffffff1684105b80156116315750600481600581111561162e5761162e611b84565b14155b806116cd5750816060015165ffffffffffff16421080156116735750816080015163ffffffff1682606001516116679190611db6565b65ffffffffffff168410155b80156116915750600481600581111561168e5761168e611b84565b14155b80156116af575060038160058111156116ac576116ac611b84565b14155b80156116cd575060008160058111156116ca576116ca611b84565b14155b156116eb576116e887836040015165ffffffffffff16610e44565b91505b60e08201516000906001600160a01b031615611776578260e001516001600160a01b0316631be052896040518163ffffffff1660e01b8152600401602060405180830381865afa158015611743573d6000803e3d6000fd5b505050506040513d601f19601f820116820180604052508101906117679190611df2565b6117719088611c78565b611779565b60005b905061179688848988851161178e5788611790565b845b8a6117a1565b505050505b50505050565b835165ffffffffffff166000036117f95760208085015160008781526002835260408082208783529093529190912065ffffffffffff60701b60709290921b91909116821760a084901b17600160d01b1790556118ed565b600061181c856060015165ffffffffffff16866080015163ffffffff1685610c61565b90508160011461182c5781611874565b61187486866060015165ffffffffffff16876080015163ffffffff168860a001516001600160701b03168960c0015163ffffffff168a6020015165ffffffffffff16876105fe565b915060006118a6866000015165ffffffffffff16876060015165ffffffffffff16886080015163ffffffff168561024e565b60208088015160008a81526002835260408082208a83529093529190912065ffffffffffff60701b60709290921b91909116851760a085901b1760d083901b179055905050505b6000858152602081815260409182902085905585810151915133815265ffffffffffff90921691879186917f470520533918800d64f06ee1795a39e90ff3c27a15350a235e17bd23698a470e910160405180910390a45050505050565b6040805161012081018252600080825260208201819052918101829052606081018290526080810182905260a0810182905260c0810182905260e0810182905261010081019190915290565b600080600080608085870312156119ac57600080fd5b5050823594602084013594506040840135936060013592509050565b600080604083850312156119db57600080fd5b50508035926020909101359150565b65ffffffffffff808251168352806020830151166020840152806040830151166040840152506060810151611a29606084018265ffffffffffff169052565b506080810151611a41608084018263ffffffff169052565b5060a0810151611a5c60a08401826001600160701b03169052565b5060c0810151611a7460c084018263ffffffff169052565b5060e0810151611a8f60e08401826001600160a01b03169052565b5061010090810151910152565b61012081016102ad82846119ea565b600060208284031215611abd57600080fd5b5035919050565b600080600080600080600060e0888a031215611adf57600080fd5b505085359760208701359750604087013596606081013596506080810135955060a0810135945060c0013592509050565b6001600160a01b038116811461153357600080fd5b600080600080600080600060e0888a031215611b4057600080fd5b873596506020880135955060408801359450606088013593506080880135611b6781611b10565b9699959850939692959460a0840135945060c09093013592915050565b634e487b7160e01b600052602160045260246000fd5b60068110611bb857634e487b7160e01b600052602160045260246000fd5b9052565b6101408101611bcb82856119ea565b6105f7610120830184611b9a565b600080600060608486031215611bee57600080fd5b505081359360208301359350604090920135919050565b602081016102ad8284611b9a565b6020808252825182820181905260009190848201906040850190845b81811015611c5657611c428385516119ea565b928401926101209290920191600101611c2f565b50909695505050505050565b634e487b7160e01b600052601160045260246000fd5b808201808211156102ad576102ad611c62565b818103818111156102ad576102ad611c62565b634e487b7160e01b600052601260045260246000fd5b600082611cc357611cc3611c9e565b500490565b600060208284031215611cda57600080fd5b815180151581146105f757600080fd5b80820281158282048414176102ad576102ad611c62565b600082611d1057611d10611c9e565b500690565b600060018201611d2757611d27611c62565b5060010190565b634e487b7160e01b600052604160045260246000fd5b634e487b7160e01b600052603260045260246000fd5b65ffffffffffff828116828216039080821115611d7957611d79611c62565b5092915050565b82815261014081016105f760208301846119ea565b600060208284031215611da757600080fd5b8151600681106105f757600080fd5b65ffffffffffff818116838216019080821115611d7957611d79611c62565b600060208284031215611de757600080fd5b81516105f781611b10565b600060208284031215611e0457600080fd5b505191905056fea2646970667358221220de9828af8735016248a2dd640b2433d1684885bd0a63c41223ae0eedc348bd8e64736f6c63430008170033",
	"gitCommit": "2c257a6d7529e08bc4aac39de4cacacc08d4628e",
	"history": []
}